{
  "contractName": "ProductERC1155",
  "abi": [
    {
      "inputs": [
        {
          "internalType": "address",
          "name": "initialOwner",
          "type": "address"
        }
      ],
      "stateMutability": "nonpayable",
      "type": "constructor"
    },
    {
      "inputs": [
        {
          "internalType": "address",
          "name": "sender",
          "type": "address"
        },
        {
          "internalType": "uint256",
          "name": "balance",
          "type": "uint256"
        },
        {
          "internalType": "uint256",
          "name": "needed",
          "type": "uint256"
        },
        {
          "internalType": "uint256",
          "name": "tokenId",
          "type": "uint256"
        }
      ],
      "name": "ERC1155InsufficientBalance",
      "type": "error"
    },
    {
      "inputs": [
        {
          "internalType": "address",
          "name": "approver",
          "type": "address"
        }
      ],
      "name": "ERC1155InvalidApprover",
      "type": "error"
    },
    {
      "inputs": [
        {
          "internalType": "uint256",
          "name": "idsLength",
          "type": "uint256"
        },
        {
          "internalType": "uint256",
          "name": "valuesLength",
          "type": "uint256"
        }
      ],
      "name": "ERC1155InvalidArrayLength",
      "type": "error"
    },
    {
      "inputs": [
        {
          "internalType": "address",
          "name": "operator",
          "type": "address"
        }
      ],
      "name": "ERC1155InvalidOperator",
      "type": "error"
    },
    {
      "inputs": [
        {
          "internalType": "address",
          "name": "receiver",
          "type": "address"
        }
      ],
      "name": "ERC1155InvalidReceiver",
      "type": "error"
    },
    {
      "inputs": [
        {
          "internalType": "address",
          "name": "sender",
          "type": "address"
        }
      ],
      "name": "ERC1155InvalidSender",
      "type": "error"
    },
    {
      "inputs": [
        {
          "internalType": "address",
          "name": "operator",
          "type": "address"
        },
        {
          "internalType": "address",
          "name": "owner",
          "type": "address"
        }
      ],
      "name": "ERC1155MissingApprovalForAll",
      "type": "error"
    },
    {
      "inputs": [
        {
          "internalType": "address",
          "name": "owner",
          "type": "address"
        }
      ],
      "name": "OwnableInvalidOwner",
      "type": "error"
    },
    {
      "inputs": [
        {
          "internalType": "address",
          "name": "account",
          "type": "address"
        }
      ],
      "name": "OwnableUnauthorizedAccount",
      "type": "error"
    },
    {
      "anonymous": false,
      "inputs": [
        {
          "indexed": true,
          "internalType": "address",
          "name": "account",
          "type": "address"
        },
        {
          "indexed": true,
          "internalType": "address",
          "name": "operator",
          "type": "address"
        },
        {
          "indexed": false,
          "internalType": "bool",
          "name": "approved",
          "type": "bool"
        }
      ],
      "name": "ApprovalForAll",
      "type": "event"
    },
    {
      "anonymous": false,
      "inputs": [
        {
          "indexed": true,
          "internalType": "address",
          "name": "previousOwner",
          "type": "address"
        },
        {
          "indexed": true,
          "internalType": "address",
          "name": "newOwner",
          "type": "address"
        }
      ],
      "name": "OwnershipTransferred",
      "type": "event"
    },
    {
      "anonymous": false,
      "inputs": [
        {
          "indexed": true,
          "internalType": "address",
          "name": "operator",
          "type": "address"
        },
        {
          "indexed": true,
          "internalType": "address",
          "name": "from",
          "type": "address"
        },
        {
          "indexed": true,
          "internalType": "address",
          "name": "to",
          "type": "address"
        },
        {
          "indexed": false,
          "internalType": "uint256[]",
          "name": "ids",
          "type": "uint256[]"
        },
        {
          "indexed": false,
          "internalType": "uint256[]",
          "name": "values",
          "type": "uint256[]"
        }
      ],
      "name": "TransferBatch",
      "type": "event"
    },
    {
      "anonymous": false,
      "inputs": [
        {
          "indexed": true,
          "internalType": "address",
          "name": "operator",
          "type": "address"
        },
        {
          "indexed": true,
          "internalType": "address",
          "name": "from",
          "type": "address"
        },
        {
          "indexed": true,
          "internalType": "address",
          "name": "to",
          "type": "address"
        },
        {
          "indexed": false,
          "internalType": "uint256",
          "name": "id",
          "type": "uint256"
        },
        {
          "indexed": false,
          "internalType": "uint256",
          "name": "value",
          "type": "uint256"
        }
      ],
      "name": "TransferSingle",
      "type": "event"
    },
    {
      "anonymous": false,
      "inputs": [
        {
          "indexed": false,
          "internalType": "string",
          "name": "value",
          "type": "string"
        },
        {
          "indexed": true,
          "internalType": "uint256",
          "name": "id",
          "type": "uint256"
        }
      ],
      "name": "URI",
      "type": "event"
    },
    {
      "inputs": [
        {
          "internalType": "address",
          "name": "account",
          "type": "address"
        },
        {
          "internalType": "uint256",
          "name": "id",
          "type": "uint256"
        }
      ],
      "name": "balanceOf",
      "outputs": [
        {
          "internalType": "uint256",
          "name": "",
          "type": "uint256"
        }
      ],
      "stateMutability": "view",
      "type": "function",
      "constant": true
    },
    {
      "inputs": [
        {
          "internalType": "address[]",
          "name": "accounts",
          "type": "address[]"
        },
        {
          "internalType": "uint256[]",
          "name": "ids",
          "type": "uint256[]"
        }
      ],
      "name": "balanceOfBatch",
      "outputs": [
        {
          "internalType": "uint256[]",
          "name": "",
          "type": "uint256[]"
        }
      ],
      "stateMutability": "view",
      "type": "function",
      "constant": true
    },
    {
      "inputs": [],
      "name": "currentTokenId",
      "outputs": [
        {
          "internalType": "uint256",
          "name": "",
          "type": "uint256"
        }
      ],
      "stateMutability": "view",
      "type": "function",
      "constant": true
    },
    {
      "inputs": [
        {
          "internalType": "address",
          "name": "account",
          "type": "address"
        },
        {
          "internalType": "address",
          "name": "operator",
          "type": "address"
        }
      ],
      "name": "isApprovedForAll",
      "outputs": [
        {
          "internalType": "bool",
          "name": "",
          "type": "bool"
        }
      ],
      "stateMutability": "view",
      "type": "function",
      "constant": true
    },
    {
      "inputs": [],
      "name": "owner",
      "outputs": [
        {
          "internalType": "address",
          "name": "",
          "type": "address"
        }
      ],
      "stateMutability": "view",
      "type": "function",
      "constant": true
    },
    {
      "inputs": [],
      "name": "renounceOwnership",
      "outputs": [],
      "stateMutability": "nonpayable",
      "type": "function"
    },
    {
      "inputs": [
        {
          "internalType": "address",
          "name": "from",
          "type": "address"
        },
        {
          "internalType": "address",
          "name": "to",
          "type": "address"
        },
        {
          "internalType": "uint256[]",
          "name": "ids",
          "type": "uint256[]"
        },
        {
          "internalType": "uint256[]",
          "name": "values",
          "type": "uint256[]"
        },
        {
          "internalType": "bytes",
          "name": "data",
          "type": "bytes"
        }
      ],
      "name": "safeBatchTransferFrom",
      "outputs": [],
      "stateMutability": "nonpayable",
      "type": "function"
    },
    {
      "inputs": [
        {
          "internalType": "address",
          "name": "from",
          "type": "address"
        },
        {
          "internalType": "address",
          "name": "to",
          "type": "address"
        },
        {
          "internalType": "uint256",
          "name": "id",
          "type": "uint256"
        },
        {
          "internalType": "uint256",
          "name": "value",
          "type": "uint256"
        },
        {
          "internalType": "bytes",
          "name": "data",
          "type": "bytes"
        }
      ],
      "name": "safeTransferFrom",
      "outputs": [],
      "stateMutability": "nonpayable",
      "type": "function"
    },
    {
      "inputs": [
        {
          "internalType": "address",
          "name": "operator",
          "type": "address"
        },
        {
          "internalType": "bool",
          "name": "approved",
          "type": "bool"
        }
      ],
      "name": "setApprovalForAll",
      "outputs": [],
      "stateMutability": "nonpayable",
      "type": "function"
    },
    {
      "inputs": [
        {
          "internalType": "bytes4",
          "name": "interfaceId",
          "type": "bytes4"
        }
      ],
      "name": "supportsInterface",
      "outputs": [
        {
          "internalType": "bool",
          "name": "",
          "type": "bool"
        }
      ],
      "stateMutability": "view",
      "type": "function",
      "constant": true
    },
    {
      "inputs": [
        {
          "internalType": "address",
          "name": "newOwner",
          "type": "address"
        }
      ],
      "name": "transferOwnership",
      "outputs": [],
      "stateMutability": "nonpayable",
      "type": "function"
    },
    {
      "inputs": [
        {
          "internalType": "uint256",
          "name": "",
          "type": "uint256"
        }
      ],
      "name": "uri",
      "outputs": [
        {
          "internalType": "string",
          "name": "",
          "type": "string"
        }
      ],
      "stateMutability": "view",
      "type": "function",
      "constant": true
    },
    {
      "inputs": [
        {
          "internalType": "address",
          "name": "to",
          "type": "address"
        },
        {
          "internalType": "uint256",
          "name": "amount",
          "type": "uint256"
        },
        {
          "internalType": "bytes",
          "name": "data",
          "type": "bytes"
        }
      ],
      "name": "mint",
      "outputs": [],
      "stateMutability": "nonpayable",
      "type": "function"
    },
    {
      "inputs": [
        {
          "internalType": "address",
          "name": "from",
          "type": "address"
        },
        {
          "internalType": "uint256",
          "name": "id",
          "type": "uint256"
        },
        {
          "internalType": "uint256",
          "name": "amount",
          "type": "uint256"
        }
      ],
      "name": "burn",
      "outputs": [],
      "stateMutability": "nonpayable",
      "type": "function"
    }
  ],
  "bytecode": "0x608060405234801562000010575f80fd5b5060405162002a0838038062002a0883398181016040528101906200003691906200022c565b806040518060600160405280602a8152602001620029de602a91396200006281620000ef60201b60201c565b505f73ffffffffffffffffffffffffffffffffffffffff168173ffffffffffffffffffffffffffffffffffffffff1603620000d6575f6040517f1e4fbdf7000000000000000000000000000000000000000000000000000000008152600401620000cd91906200026d565b60405180910390fd5b620000e7816200010460201b60201c565b5050620005d0565b8060029081620001009190620004ec565b5050565b5f60035f9054906101000a900473ffffffffffffffffffffffffffffffffffffffff1690508160035f6101000a81548173ffffffffffffffffffffffffffffffffffffffff021916908373ffffffffffffffffffffffffffffffffffffffff1602179055508173ffffffffffffffffffffffffffffffffffffffff168173ffffffffffffffffffffffffffffffffffffffff167f8be0079c531659141344cd1fd0a4f28419497f9722a3daafe3b4186f6b6457e060405160405180910390a35050565b5f80fd5b5f73ffffffffffffffffffffffffffffffffffffffff82169050919050565b5f620001f682620001cb565b9050919050565b6200020881620001ea565b811462000213575f80fd5b50565b5f815190506200022681620001fd565b92915050565b5f60208284031215620002445762000243620001c7565b5b5f620002538482850162000216565b91505092915050565b6200026781620001ea565b82525050565b5f602082019050620002825f8301846200025c565b92915050565b5f81519050919050565b7f4e487b71000000000000000000000000000000000000000000000000000000005f52604160045260245ffd5b7f4e487b71000000000000000000000000000000000000000000000000000000005f52602260045260245ffd5b5f60028204905060018216806200030457607f821691505b6020821081036200031a5762000319620002bf565b5b50919050565b5f819050815f5260205f209050919050565b5f6020601f8301049050919050565b5f82821b905092915050565b5f600883026200037e7fffffffffffffffffffffffffffffffffffffffffffffffffffffffffffffffff8262000341565b6200038a868362000341565b95508019841693508086168417925050509392505050565b5f819050919050565b5f819050919050565b5f620003d4620003ce620003c884620003a2565b620003ab565b620003a2565b9050919050565b5f819050919050565b620003ef83620003b4565b62000407620003fe82620003db565b8484546200034d565b825550505050565b5f90565b6200041d6200040f565b6200042a818484620003e4565b505050565b5b818110156200045157620004455f8262000413565b60018101905062000430565b5050565b601f821115620004a0576200046a8162000320565b620004758462000332565b8101602085101562000485578190505b6200049d620004948562000332565b8301826200042f565b50505b505050565b5f82821c905092915050565b5f620004c25f1984600802620004a5565b1980831691505092915050565b5f620004dc8383620004b1565b9150826002028217905092915050565b620004f78262000288565b67ffffffffffffffff81111562000513576200051262000292565b5b6200051f8254620002ec565b6200052c82828562000455565b5f60209050601f83116001811462000562575f84156200054d578287015190505b620005598582620004cf565b865550620005c8565b601f198416620005728662000320565b5f5b828110156200059b5784890151825560018201915060208501945060208101905062000574565b86831015620005bb5784890151620005b7601f891682620004b1565b8355505b6001600288020188555050505b505050505050565b61240080620005de5f395ff3fe608060405234801561000f575f80fd5b50600436106100e6575f3560e01c80638da5cb5b1161008a578063e985e9c511610064578063e985e9c514610244578063f242432a14610274578063f2fde38b14610290578063f5298aca146102ac576100e6565b80638da5cb5b146101ee57806394d008ef1461020c578063a22cb46514610228576100e6565b80630e89341c116100c65780630e89341c146101685780632eb2c2d6146101985780634e1273f4146101b4578063715018a6146101e4576100e6565b80629a9b7b146100ea578062fdd58e1461010857806301ffc9a714610138575b5f80fd5b6100f26102c8565b6040516100ff9190611700565b60405180910390f35b610122600480360381019061011d91906117ae565b6102ce565b60405161012f9190611700565b60405180910390f35b610152600480360381019061014d9190611841565b610323565b60405161015f9190611886565b60405180910390f35b610182600480360381019061017d919061189f565b610404565b60405161018f9190611954565b60405180910390f35b6101b260048036038101906101ad9190611b64565b610496565b005b6101ce60048036038101906101c99190611cef565b61053d565b6040516101db9190611e1c565b60405180910390f35b6101ec61064a565b005b6101f661065d565b6040516102039190611e4b565b60405180910390f35b61022660048036038101906102219190611e64565b610685565b005b610242600480360381019061023d9190611efa565b6106b7565b005b61025e60048036038101906102599190611f38565b6106cd565b60405161026b9190611886565b60405180910390f35b61028e60048036038101906102899190611f76565b61075b565b005b6102aa60048036038101906102a59190612009565b610802565b005b6102c660048036038101906102c19190612034565b610886565b005b60045481565b5f805f8381526020019081526020015f205f8473ffffffffffffffffffffffffffffffffffffffff1673ffffffffffffffffffffffffffffffffffffffff1681526020019081526020015f2054905092915050565b5f7fd9b67a26000000000000000000000000000000000000000000000000000000007bffffffffffffffffffffffffffffffffffffffffffffffffffffffff1916827bffffffffffffffffffffffffffffffffffffffffffffffffffffffff191614806103ed57507f0e89341c000000000000000000000000000000000000000000000000000000007bffffffffffffffffffffffffffffffffffffffffffffffffffffffff1916827bffffffffffffffffffffffffffffffffffffffffffffffffffffffff1916145b806103fd57506103fc8261089e565b5b9050919050565b606060028054610413906120b1565b80601f016020809104026020016040519081016040528092919081815260200182805461043f906120b1565b801561048a5780601f106104615761010080835404028352916020019161048a565b820191905f5260205f20905b81548152906001019060200180831161046d57829003601f168201915b50505050509050919050565b5f61049f610907565b90508073ffffffffffffffffffffffffffffffffffffffff168673ffffffffffffffffffffffffffffffffffffffff16141580156104e457506104e286826106cd565b155b156105285780866040517fe237d92200000000000000000000000000000000000000000000000000000000815260040161051f9291906120e1565b60405180910390fd5b610535868686868661090e565b505050505050565b6060815183511461058957815183516040517f5b059991000000000000000000000000000000000000000000000000000000008152600401610580929190612108565b60405180910390fd5b5f835167ffffffffffffffff8111156105a5576105a4611978565b5b6040519080825280602002602001820160405280156105d35781602001602082028036833780820191505090505b5090505f5b845181101561063f5761060f6105f78287610a0290919063ffffffff16565b61060a8387610a1590919063ffffffff16565b6102ce565b8282815181106106225761062161212f565b5b6020026020010181815250508061063890612189565b90506105d8565b508091505092915050565b610652610a28565b61065b5f610aaf565b565b5f60035f9054906101000a900473ffffffffffffffffffffffffffffffffffffffff16905090565b61068d610a28565b61069b836004548484610b72565b60045f8154809291906106ad90612189565b9190505550505050565b6106c96106c2610907565b8383610c07565b5050565b5f60015f8473ffffffffffffffffffffffffffffffffffffffff1673ffffffffffffffffffffffffffffffffffffffff1681526020019081526020015f205f8373ffffffffffffffffffffffffffffffffffffffff1673ffffffffffffffffffffffffffffffffffffffff1681526020019081526020015f205f9054906101000a900460ff16905092915050565b5f610764610907565b90508073ffffffffffffffffffffffffffffffffffffffff168673ffffffffffffffffffffffffffffffffffffffff16141580156107a957506107a786826106cd565b155b156107ed5780866040517fe237d9220000000000000000000000000000000000000000000000000000000081526004016107e49291906120e1565b60405180910390fd5b6107fa8686868686610d70565b505050505050565b61080a610a28565b5f73ffffffffffffffffffffffffffffffffffffffff168173ffffffffffffffffffffffffffffffffffffffff160361087a575f6040517f1e4fbdf70000000000000000000000000000000000000000000000000000000081526004016108719190611e4b565b60405180910390fd5b61088381610aaf565b50565b61088e610a28565b610899838383610e76565b505050565b5f7f01ffc9a7000000000000000000000000000000000000000000000000000000007bffffffffffffffffffffffffffffffffffffffffffffffffffffffff1916827bffffffffffffffffffffffffffffffffffffffffffffffffffffffff1916149050919050565b5f33905090565b5f73ffffffffffffffffffffffffffffffffffffffff168473ffffffffffffffffffffffffffffffffffffffff160361097e575f6040517f57f447ce0000000000000000000000000000000000000000000000000000000081526004016109759190611e4b565b60405180910390fd5b5f73ffffffffffffffffffffffffffffffffffffffff168573ffffffffffffffffffffffffffffffffffffffff16036109ee575f6040517f01a835140000000000000000000000000000000000000000000000000000000081526004016109e59190611e4b565b60405180910390fd5b6109fb8585858585610f18565b5050505050565b5f60208202602084010151905092915050565b5f60208202602084010151905092915050565b610a30610907565b73ffffffffffffffffffffffffffffffffffffffff16610a4e61065d565b73ffffffffffffffffffffffffffffffffffffffff1614610aad57610a71610907565b6040517f118cdaa7000000000000000000000000000000000000000000000000000000008152600401610aa49190611e4b565b60405180910390fd5b565b5f60035f9054906101000a900473ffffffffffffffffffffffffffffffffffffffff1690508160035f6101000a81548173ffffffffffffffffffffffffffffffffffffffff021916908373ffffffffffffffffffffffffffffffffffffffff1602179055508173ffffffffffffffffffffffffffffffffffffffff168173ffffffffffffffffffffffffffffffffffffffff167f8be0079c531659141344cd1fd0a4f28419497f9722a3daafe3b4186f6b6457e060405160405180910390a35050565b5f73ffffffffffffffffffffffffffffffffffffffff168473ffffffffffffffffffffffffffffffffffffffff1603610be2575f6040517f57f447ce000000000000000000000000000000000000000000000000000000008152600401610bd99190611e4b565b60405180910390fd5b5f80610bee8585610fc4565b91509150610bff5f87848487610f18565b505050505050565b5f73ffffffffffffffffffffffffffffffffffffffff168273ffffffffffffffffffffffffffffffffffffffff1603610c77575f6040517fced3e100000000000000000000000000000000000000000000000000000000008152600401610c6e9190611e4b565b60405180910390fd5b8060015f8573ffffffffffffffffffffffffffffffffffffffff1673ffffffffffffffffffffffffffffffffffffffff1681526020019081526020015f205f8473ffffffffffffffffffffffffffffffffffffffff1673ffffffffffffffffffffffffffffffffffffffff1681526020019081526020015f205f6101000a81548160ff0219169083151502179055508173ffffffffffffffffffffffffffffffffffffffff168373ffffffffffffffffffffffffffffffffffffffff167f17307eab39ab6107e8899845ad3d59bd9653f200f220920489ca2b5937696c3183604051610d639190611886565b60405180910390a3505050565b5f73ffffffffffffffffffffffffffffffffffffffff168473ffffffffffffffffffffffffffffffffffffffff1603610de0575f6040517f57f447ce000000000000000000000000000000000000000000000000000000008152600401610dd79190611e4b565b60405180910390fd5b5f73ffffffffffffffffffffffffffffffffffffffff168573ffffffffffffffffffffffffffffffffffffffff1603610e50575f6040517f01a83514000000000000000000000000000000000000000000000000000000008152600401610e479190611e4b565b60405180910390fd5b5f80610e5c8585610fc4565b91509150610e6d8787848487610f18565b50505050505050565b5f73ffffffffffffffffffffffffffffffffffffffff168373ffffffffffffffffffffffffffffffffffffffff1603610ee6575f6040517f01a83514000000000000000000000000000000000000000000000000000000008152600401610edd9190611e4b565b60405180910390fd5b5f80610ef28484610fc4565b91509150610f11855f848460405180602001604052805f815250610f18565b5050505050565b610f2485858585610ff4565b5f73ffffffffffffffffffffffffffffffffffffffff168473ffffffffffffffffffffffffffffffffffffffff1614610fbd575f610f60610907565b90506001845103610fac575f610f7f5f86610a1590919063ffffffff16565b90505f610f955f86610a1590919063ffffffff16565b9050610fa583898985858961138a565b5050610fbb565b610fba818787878787611539565b5b505b5050505050565b60608060405191506001825283602083015260408201905060018152826020820152604081016040529250929050565b805182511461103e57815181516040517f5b059991000000000000000000000000000000000000000000000000000000008152600401611035929190612108565b60405180910390fd5b5f611047610907565b90505f5b8351811015611249575f6110688286610a1590919063ffffffff16565b90505f61107e8386610a1590919063ffffffff16565b90505f73ffffffffffffffffffffffffffffffffffffffff168873ffffffffffffffffffffffffffffffffffffffff16146111a1575f805f8481526020019081526020015f205f8a73ffffffffffffffffffffffffffffffffffffffff1673ffffffffffffffffffffffffffffffffffffffff1681526020019081526020015f205490508181101561114d57888183856040517f03dee4c500000000000000000000000000000000000000000000000000000000815260040161114494939291906121d0565b60405180910390fd5b8181035f808581526020019081526020015f205f8b73ffffffffffffffffffffffffffffffffffffffff1673ffffffffffffffffffffffffffffffffffffffff1681526020019081526020015f2081905550505b5f73ffffffffffffffffffffffffffffffffffffffff168773ffffffffffffffffffffffffffffffffffffffff161461123657805f808481526020019081526020015f205f8973ffffffffffffffffffffffffffffffffffffffff1673ffffffffffffffffffffffffffffffffffffffff1681526020019081526020015f205f82825461122e9190612213565b925050819055505b50508061124290612189565b905061104b565b506001835103611304575f6112675f85610a1590919063ffffffff16565b90505f61127d5f85610a1590919063ffffffff16565b90508573ffffffffffffffffffffffffffffffffffffffff168773ffffffffffffffffffffffffffffffffffffffff168473ffffffffffffffffffffffffffffffffffffffff167fc3d58168c5ae7397731d063d5bbf3d657854427343f4c083240f7aacaa2d0f6285856040516112f5929190612108565b60405180910390a45050611383565b8373ffffffffffffffffffffffffffffffffffffffff168573ffffffffffffffffffffffffffffffffffffffff168273ffffffffffffffffffffffffffffffffffffffff167f4a39dc06d4c0dbc64b70af90fd698a233a518aa5d07e595d983b8c0526c8f7fb868660405161137a929190612246565b60405180910390a45b5050505050565b5f8473ffffffffffffffffffffffffffffffffffffffff163b1115611531578373ffffffffffffffffffffffffffffffffffffffff1663f23a6e6187878686866040518663ffffffff1660e01b81526004016113ea9594939291906122cd565b6020604051808303815f875af192505050801561142557506040513d601f19601f820116820180604052508101906114229190612339565b60015b6114a6573d805f8114611453576040519150601f19603f3d011682016040523d82523d5f602084013e611458565b606091505b505f81510361149e57846040517f57f447ce0000000000000000000000000000000000000000000000000000000081526004016114959190611e4b565b60405180910390fd5b805181602001fd5b63f23a6e6160e01b7bffffffffffffffffffffffffffffffffffffffffffffffffffffffff1916817bffffffffffffffffffffffffffffffffffffffffffffffffffffffff19161461152f57846040517f57f447ce0000000000000000000000000000000000000000000000000000000081526004016115269190611e4b565b60405180910390fd5b505b505050505050565b5f8473ffffffffffffffffffffffffffffffffffffffff163b11156116e0578373ffffffffffffffffffffffffffffffffffffffff1663bc197c8187878686866040518663ffffffff1660e01b8152600401611599959493929190612364565b6020604051808303815f875af19250505080156115d457506040513d601f19601f820116820180604052508101906115d19190612339565b60015b611655573d805f8114611602576040519150601f19603f3d011682016040523d82523d5f602084013e611607565b606091505b505f81510361164d57846040517f57f447ce0000000000000000000000000000000000000000000000000000000081526004016116449190611e4b565b60405180910390fd5b805181602001fd5b63bc197c8160e01b7bffffffffffffffffffffffffffffffffffffffffffffffffffffffff1916817bffffffffffffffffffffffffffffffffffffffffffffffffffffffff1916146116de57846040517f57f447ce0000000000000000000000000000000000000000000000000000000081526004016116d59190611e4b565b60405180910390fd5b505b505050505050565b5f819050919050565b6116fa816116e8565b82525050565b5f6020820190506117135f8301846116f1565b92915050565b5f604051905090565b5f80fd5b5f80fd5b5f73ffffffffffffffffffffffffffffffffffffffff82169050919050565b5f6117538261172a565b9050919050565b61176381611749565b811461176d575f80fd5b50565b5f8135905061177e8161175a565b92915050565b61178d816116e8565b8114611797575f80fd5b50565b5f813590506117a881611784565b92915050565b5f80604083850312156117c4576117c3611722565b5b5f6117d185828601611770565b92505060206117e28582860161179a565b9150509250929050565b5f7fffffffff0000000000000000000000000000000000000000000000000000000082169050919050565b611820816117ec565b811461182a575f80fd5b50565b5f8135905061183b81611817565b92915050565b5f6020828403121561185657611855611722565b5b5f6118638482850161182d565b91505092915050565b5f8115159050919050565b6118808161186c565b82525050565b5f6020820190506118995f830184611877565b92915050565b5f602082840312156118b4576118b3611722565b5b5f6118c18482850161179a565b91505092915050565b5f81519050919050565b5f82825260208201905092915050565b5f5b838110156119015780820151818401526020810190506118e6565b5f8484015250505050565b5f601f19601f8301169050919050565b5f611926826118ca565b61193081856118d4565b93506119408185602086016118e4565b6119498161190c565b840191505092915050565b5f6020820190508181035f83015261196c818461191c565b905092915050565b5f80fd5b7f4e487b71000000000000000000000000000000000000000000000000000000005f52604160045260245ffd5b6119ae8261190c565b810181811067ffffffffffffffff821117156119cd576119cc611978565b5b80604052505050565b5f6119df611719565b90506119eb82826119a5565b919050565b5f67ffffffffffffffff821115611a0a57611a09611978565b5b602082029050602081019050919050565b5f80fd5b5f611a31611a2c846119f0565b6119d6565b90508083825260208201905060208402830185811115611a5457611a53611a1b565b5b835b81811015611a7d5780611a69888261179a565b845260208401935050602081019050611a56565b5050509392505050565b5f82601f830112611a9b57611a9a611974565b5b8135611aab848260208601611a1f565b91505092915050565b5f80fd5b5f67ffffffffffffffff821115611ad257611ad1611978565b5b611adb8261190c565b9050602081019050919050565b828183375f83830152505050565b5f611b08611b0384611ab8565b6119d6565b905082815260208101848484011115611b2457611b23611ab4565b5b611b2f848285611ae8565b509392505050565b5f82601f830112611b4b57611b4a611974565b5b8135611b5b848260208601611af6565b91505092915050565b5f805f805f60a08688031215611b7d57611b7c611722565b5b5f611b8a88828901611770565b9550506020611b9b88828901611770565b945050604086013567ffffffffffffffff811115611bbc57611bbb611726565b5b611bc888828901611a87565b935050606086013567ffffffffffffffff811115611be957611be8611726565b5b611bf588828901611a87565b925050608086013567ffffffffffffffff811115611c1657611c15611726565b5b611c2288828901611b37565b9150509295509295909350565b5f67ffffffffffffffff821115611c4957611c48611978565b5b602082029050602081019050919050565b5f611c6c611c6784611c2f565b6119d6565b90508083825260208201905060208402830185811115611c8f57611c8e611a1b565b5b835b81811015611cb85780611ca48882611770565b845260208401935050602081019050611c91565b5050509392505050565b5f82601f830112611cd657611cd5611974565b5b8135611ce6848260208601611c5a565b91505092915050565b5f8060408385031215611d0557611d04611722565b5b5f83013567ffffffffffffffff811115611d2257611d21611726565b5b611d2e85828601611cc2565b925050602083013567ffffffffffffffff811115611d4f57611d4e611726565b5b611d5b85828601611a87565b9150509250929050565b5f81519050919050565b5f82825260208201905092915050565b5f819050602082019050919050565b611d97816116e8565b82525050565b5f611da88383611d8e565b60208301905092915050565b5f602082019050919050565b5f611dca82611d65565b611dd48185611d6f565b9350611ddf83611d7f565b805f5b83811015611e0f578151611df68882611d9d565b9750611e0183611db4565b925050600181019050611de2565b5085935050505092915050565b5f6020820190508181035f830152611e348184611dc0565b905092915050565b611e4581611749565b82525050565b5f602082019050611e5e5f830184611e3c565b92915050565b5f805f60608486031215611e7b57611e7a611722565b5b5f611e8886828701611770565b9350506020611e998682870161179a565b925050604084013567ffffffffffffffff811115611eba57611eb9611726565b5b611ec686828701611b37565b9150509250925092565b611ed98161186c565b8114611ee3575f80fd5b50565b5f81359050611ef481611ed0565b92915050565b5f8060408385031215611f1057611f0f611722565b5b5f611f1d85828601611770565b9250506020611f2e85828601611ee6565b9150509250929050565b5f8060408385031215611f4e57611f4d611722565b5b5f611f5b85828601611770565b9250506020611f6c85828601611770565b9150509250929050565b5f805f805f60a08688031215611f8f57611f8e611722565b5b5f611f9c88828901611770565b9550506020611fad88828901611770565b9450506040611fbe8882890161179a565b9350506060611fcf8882890161179a565b925050608086013567ffffffffffffffff811115611ff057611fef611726565b5b611ffc88828901611b37565b9150509295509295909350565b5f6020828403121561201e5761201d611722565b5b5f61202b84828501611770565b91505092915050565b5f805f6060848603121561204b5761204a611722565b5b5f61205886828701611770565b93505060206120698682870161179a565b925050604061207a8682870161179a565b9150509250925092565b7f4e487b71000000000000000000000000000000000000000000000000000000005f52602260045260245ffd5b5f60028204905060018216806120c857607f821691505b6020821081036120db576120da612084565b5b50919050565b5f6040820190506120f45f830185611e3c565b6121016020830184611e3c565b9392505050565b5f60408201905061211b5f8301856116f1565b61212860208301846116f1565b9392505050565b7f4e487b71000000000000000000000000000000000000000000000000000000005f52603260045260245ffd5b7f4e487b71000000000000000000000000000000000000000000000000000000005f52601160045260245ffd5b5f612193826116e8565b91507fffffffffffffffffffffffffffffffffffffffffffffffffffffffffffffffff82036121c5576121c461215c565b5b600182019050919050565b5f6080820190506121e35f830187611e3c565b6121f060208301866116f1565b6121fd60408301856116f1565b61220a60608301846116f1565b95945050505050565b5f61221d826116e8565b9150612228836116e8565b92508282019050808211156122405761223f61215c565b5b92915050565b5f6040820190508181035f83015261225e8185611dc0565b905081810360208301526122728184611dc0565b90509392505050565b5f81519050919050565b5f82825260208201905092915050565b5f61229f8261227b565b6122a98185612285565b93506122b98185602086016118e4565b6122c28161190c565b840191505092915050565b5f60a0820190506122e05f830188611e3c565b6122ed6020830187611e3c565b6122fa60408301866116f1565b61230760608301856116f1565b81810360808301526123198184612295565b90509695505050505050565b5f8151905061233381611817565b92915050565b5f6020828403121561234e5761234d611722565b5b5f61235b84828501612325565b91505092915050565b5f60a0820190506123775f830188611e3c565b6123846020830187611e3c565b81810360408301526123968186611dc0565b905081810360608301526123aa8185611dc0565b905081810360808301526123be8184612295565b9050969550505050505056fea2646970667358221220649746cddad54f87f7f837b8eb313c40d11c83ce4fc50309eb46fd56e1d0affa64736f6c6343000815003368747470733a2f2f6170692e6578616d706c652e636f6d2f6d657461646174612f7b69647d2e6a736f6e",
  "immutableReferences": {},
  "source": "// SPDX-License-Identifier: MIT\npragma solidity ^0.8.0;\n\nimport \"@openzeppelin/contracts/token/ERC1155/ERC1155.sol\";\nimport \"@openzeppelin/contracts/access/Ownable.sol\";\n\ncontract ProductERC1155 is ERC1155, Ownable {\n    uint public currentTokenId;\n\n    // Pass the initialOwner parameter to the Ownable constructor\n    constructor(address initialOwner) ERC1155(\"https://api.example.com/metadata/{id}.json\") Ownable(initialOwner) {}\n\n    function mint(address to, uint256 amount, bytes memory data) public onlyOwner {\n        _mint(to, currentTokenId, amount, data);\n        currentTokenId++;\n    }\n\n    function burn(address from, uint256 id, uint256 amount) public onlyOwner {\n        _burn(from, id, amount);\n    }\n}\n",
  "sourcePath": "/home/mithra/blockchain/contracts/erc1155.sol",
  "compiler": {
    "name": "solc",
    "version": "0.8.21+commit.d9974bed.Emscripten.clang"
  },
  "schemaVersion": "3.4.16",
  "updatedAt": "2024-12-24T05:07:44.700Z",
  "networkType": "ethereum",
  "devdoc": {
    "errors": {
      "ERC1155InsufficientBalance(address,uint256,uint256,uint256)": [
        {
          "details": "Indicates an error related to the current `balance` of a `sender`. Used in transfers.",
          "params": {
            "balance": "Current balance for the interacting account.",
            "needed": "Minimum amount required to perform a transfer.",
            "sender": "Address whose tokens are being transferred.",
            "tokenId": "Identifier number of a token."
          }
        }
      ],
      "ERC1155InvalidApprover(address)": [
        {
          "details": "Indicates a failure with the `approver` of a token to be approved. Used in approvals.",
          "params": {
            "approver": "Address initiating an approval operation."
          }
        }
      ],
      "ERC1155InvalidArrayLength(uint256,uint256)": [
        {
          "details": "Indicates an array length mismatch between ids and values in a safeBatchTransferFrom operation. Used in batch transfers.",
          "params": {
            "idsLength": "Length of the array of token identifiers",
            "valuesLength": "Length of the array of token amounts"
          }
        }
      ],
      "ERC1155InvalidOperator(address)": [
        {
          "details": "Indicates a failure with the `operator` to be approved. Used in approvals.",
          "params": {
            "operator": "Address that may be allowed to operate on tokens without being their owner."
          }
        }
      ],
      "ERC1155InvalidReceiver(address)": [
        {
          "details": "Indicates a failure with the token `receiver`. Used in transfers.",
          "params": {
            "receiver": "Address to which tokens are being transferred."
          }
        }
      ],
      "ERC1155InvalidSender(address)": [
        {
          "details": "Indicates a failure with the token `sender`. Used in transfers.",
          "params": {
            "sender": "Address whose tokens are being transferred."
          }
        }
      ],
      "ERC1155MissingApprovalForAll(address,address)": [
        {
          "details": "Indicates a failure with the `operator`s approval. Used in transfers.",
          "params": {
            "operator": "Address that may be allowed to operate on tokens without being their owner.",
            "owner": "Address of the current owner of a token."
          }
        }
      ],
      "OwnableInvalidOwner(address)": [
        {
          "details": "The owner is not a valid owner account. (eg. `address(0)`)"
        }
      ],
      "OwnableUnauthorizedAccount(address)": [
        {
          "details": "The caller account is not authorized to perform an operation."
        }
      ]
    },
    "events": {
      "ApprovalForAll(address,address,bool)": {
        "details": "Emitted when `account` grants or revokes permission to `operator` to transfer their tokens, according to `approved`."
      },
      "TransferBatch(address,address,address,uint256[],uint256[])": {
        "details": "Equivalent to multiple {TransferSingle} events, where `operator`, `from` and `to` are the same for all transfers."
      },
      "TransferSingle(address,address,address,uint256,uint256)": {
        "details": "Emitted when `value` amount of tokens of type `id` are transferred from `from` to `to` by `operator`."
      },
      "URI(string,uint256)": {
        "details": "Emitted when the URI for token type `id` changes to `value`, if it is a non-programmatic URI. If an {URI} event was emitted for `id`, the standard https://eips.ethereum.org/EIPS/eip-1155#metadata-extensions[guarantees] that `value` will equal the value returned by {IERC1155MetadataURI-uri}."
      }
    },
    "kind": "dev",
    "methods": {
      "balanceOf(address,uint256)": {
        "details": "See {IERC1155-balanceOf}."
      },
      "balanceOfBatch(address[],uint256[])": {
        "details": "See {IERC1155-balanceOfBatch}. Requirements: - `accounts` and `ids` must have the same length."
      },
      "isApprovedForAll(address,address)": {
        "details": "See {IERC1155-isApprovedForAll}."
      },
      "owner()": {
        "details": "Returns the address of the current owner."
      },
      "renounceOwnership()": {
        "details": "Leaves the contract without owner. It will not be possible to call `onlyOwner` functions. Can only be called by the current owner. NOTE: Renouncing ownership will leave the contract without an owner, thereby disabling any functionality that is only available to the owner."
      },
      "safeBatchTransferFrom(address,address,uint256[],uint256[],bytes)": {
        "details": "See {IERC1155-safeBatchTransferFrom}."
      },
      "safeTransferFrom(address,address,uint256,uint256,bytes)": {
        "details": "See {IERC1155-safeTransferFrom}."
      },
      "setApprovalForAll(address,bool)": {
        "details": "See {IERC1155-setApprovalForAll}."
      },
      "supportsInterface(bytes4)": {
        "details": "See {IERC165-supportsInterface}."
      },
      "transferOwnership(address)": {
        "details": "Transfers ownership of the contract to a new account (`newOwner`). Can only be called by the current owner."
      },
      "uri(uint256)": {
        "details": "See {IERC1155MetadataURI-uri}. This implementation returns the same URI for *all* token types. It relies on the token type ID substitution mechanism https://eips.ethereum.org/EIPS/eip-1155#metadata[defined in the ERC]. Clients calling this function must replace the `\\{id\\}` substring with the actual token type ID."
      }
    },
    "version": 1
  },
  "userdoc": {
    "kind": "user",
    "methods": {},
    "version": 1
  }
}