{
  "contractName": "ProductOwnership",
  "abi": [
    {
      "inputs": [
        {
          "internalType": "address",
          "name": "initialOwner",
          "type": "address"
        }
      ],
      "stateMutability": "nonpayable",
      "type": "constructor"
    },
    {
      "inputs": [],
      "name": "AccessControlBadConfirmation",
      "type": "error"
    },
    {
      "inputs": [
        {
          "internalType": "address",
          "name": "account",
          "type": "address"
        },
        {
          "internalType": "bytes32",
          "name": "neededRole",
          "type": "bytes32"
        }
      ],
      "name": "AccessControlUnauthorizedAccount",
      "type": "error"
    },
    {
      "inputs": [
        {
          "internalType": "address",
          "name": "sender",
          "type": "address"
        },
        {
          "internalType": "uint256",
          "name": "balance",
          "type": "uint256"
        },
        {
          "internalType": "uint256",
          "name": "needed",
          "type": "uint256"
        },
        {
          "internalType": "uint256",
          "name": "tokenId",
          "type": "uint256"
        }
      ],
      "name": "ERC1155InsufficientBalance",
      "type": "error"
    },
    {
      "inputs": [
        {
          "internalType": "address",
          "name": "approver",
          "type": "address"
        }
      ],
      "name": "ERC1155InvalidApprover",
      "type": "error"
    },
    {
      "inputs": [
        {
          "internalType": "uint256",
          "name": "idsLength",
          "type": "uint256"
        },
        {
          "internalType": "uint256",
          "name": "valuesLength",
          "type": "uint256"
        }
      ],
      "name": "ERC1155InvalidArrayLength",
      "type": "error"
    },
    {
      "inputs": [
        {
          "internalType": "address",
          "name": "operator",
          "type": "address"
        }
      ],
      "name": "ERC1155InvalidOperator",
      "type": "error"
    },
    {
      "inputs": [
        {
          "internalType": "address",
          "name": "receiver",
          "type": "address"
        }
      ],
      "name": "ERC1155InvalidReceiver",
      "type": "error"
    },
    {
      "inputs": [
        {
          "internalType": "address",
          "name": "sender",
          "type": "address"
        }
      ],
      "name": "ERC1155InvalidSender",
      "type": "error"
    },
    {
      "inputs": [
        {
          "internalType": "address",
          "name": "operator",
          "type": "address"
        },
        {
          "internalType": "address",
          "name": "owner",
          "type": "address"
        }
      ],
      "name": "ERC1155MissingApprovalForAll",
      "type": "error"
    },
    {
      "inputs": [
        {
          "internalType": "address",
          "name": "owner",
          "type": "address"
        }
      ],
      "name": "OwnableInvalidOwner",
      "type": "error"
    },
    {
      "inputs": [
        {
          "internalType": "address",
          "name": "account",
          "type": "address"
        }
      ],
      "name": "OwnableUnauthorizedAccount",
      "type": "error"
    },
    {
      "anonymous": false,
      "inputs": [
        {
          "indexed": true,
          "internalType": "address",
          "name": "account",
          "type": "address"
        },
        {
          "indexed": true,
          "internalType": "address",
          "name": "operator",
          "type": "address"
        },
        {
          "indexed": false,
          "internalType": "bool",
          "name": "approved",
          "type": "bool"
        }
      ],
      "name": "ApprovalForAll",
      "type": "event"
    },
    {
      "anonymous": false,
      "inputs": [
        {
          "indexed": false,
          "internalType": "string",
          "name": "name",
          "type": "string"
        },
        {
          "indexed": false,
          "internalType": "uint256",
          "name": "serialno",
          "type": "uint256"
        },
        {
          "indexed": false,
          "internalType": "uint256",
          "name": "productDna",
          "type": "uint256"
        },
        {
          "indexed": false,
          "internalType": "string",
          "name": "metadataHash",
          "type": "string"
        }
      ],
      "name": "NewProduct",
      "type": "event"
    },
    {
      "anonymous": false,
      "inputs": [
        {
          "indexed": true,
          "internalType": "address",
          "name": "previousOwner",
          "type": "address"
        },
        {
          "indexed": true,
          "internalType": "address",
          "name": "newOwner",
          "type": "address"
        }
      ],
      "name": "OwnershipTransferred",
      "type": "event"
    },
    {
      "anonymous": false,
      "inputs": [
        {
          "indexed": true,
          "internalType": "bytes32",
          "name": "role",
          "type": "bytes32"
        },
        {
          "indexed": true,
          "internalType": "bytes32",
          "name": "previousAdminRole",
          "type": "bytes32"
        },
        {
          "indexed": true,
          "internalType": "bytes32",
          "name": "newAdminRole",
          "type": "bytes32"
        }
      ],
      "name": "RoleAdminChanged",
      "type": "event"
    },
    {
      "anonymous": false,
      "inputs": [
        {
          "indexed": true,
          "internalType": "bytes32",
          "name": "role",
          "type": "bytes32"
        },
        {
          "indexed": true,
          "internalType": "address",
          "name": "account",
          "type": "address"
        },
        {
          "indexed": true,
          "internalType": "address",
          "name": "sender",
          "type": "address"
        }
      ],
      "name": "RoleGranted",
      "type": "event"
    },
    {
      "anonymous": false,
      "inputs": [
        {
          "indexed": true,
          "internalType": "bytes32",
          "name": "role",
          "type": "bytes32"
        },
        {
          "indexed": true,
          "internalType": "address",
          "name": "account",
          "type": "address"
        },
        {
          "indexed": true,
          "internalType": "address",
          "name": "sender",
          "type": "address"
        }
      ],
      "name": "RoleRevoked",
      "type": "event"
    },
    {
      "anonymous": false,
      "inputs": [
        {
          "indexed": true,
          "internalType": "address",
          "name": "operator",
          "type": "address"
        },
        {
          "indexed": true,
          "internalType": "address",
          "name": "from",
          "type": "address"
        },
        {
          "indexed": true,
          "internalType": "address",
          "name": "to",
          "type": "address"
        },
        {
          "indexed": false,
          "internalType": "uint256[]",
          "name": "ids",
          "type": "uint256[]"
        },
        {
          "indexed": false,
          "internalType": "uint256[]",
          "name": "values",
          "type": "uint256[]"
        }
      ],
      "name": "TransferBatch",
      "type": "event"
    },
    {
      "anonymous": false,
      "inputs": [
        {
          "indexed": true,
          "internalType": "address",
          "name": "operator",
          "type": "address"
        },
        {
          "indexed": true,
          "internalType": "address",
          "name": "from",
          "type": "address"
        },
        {
          "indexed": true,
          "internalType": "address",
          "name": "to",
          "type": "address"
        },
        {
          "indexed": false,
          "internalType": "uint256",
          "name": "id",
          "type": "uint256"
        },
        {
          "indexed": false,
          "internalType": "uint256",
          "name": "value",
          "type": "uint256"
        }
      ],
      "name": "TransferSingle",
      "type": "event"
    },
    {
      "anonymous": false,
      "inputs": [
        {
          "indexed": false,
          "internalType": "string",
          "name": "value",
          "type": "string"
        },
        {
          "indexed": true,
          "internalType": "uint256",
          "name": "id",
          "type": "uint256"
        }
      ],
      "name": "URI",
      "type": "event"
    },
    {
      "inputs": [],
      "name": "DEFAULT_ADMIN_ROLE",
      "outputs": [
        {
          "internalType": "bytes32",
          "name": "",
          "type": "bytes32"
        }
      ],
      "stateMutability": "view",
      "type": "function",
      "constant": true
    },
    {
      "inputs": [],
      "name": "DISTRIBUTOR_ROLE",
      "outputs": [
        {
          "internalType": "bytes32",
          "name": "",
          "type": "bytes32"
        }
      ],
      "stateMutability": "view",
      "type": "function",
      "constant": true
    },
    {
      "inputs": [],
      "name": "MANUFACTURER_ROLE",
      "outputs": [
        {
          "internalType": "bytes32",
          "name": "",
          "type": "bytes32"
        }
      ],
      "stateMutability": "view",
      "type": "function",
      "constant": true
    },
    {
      "inputs": [],
      "name": "RETAILER_ROLE",
      "outputs": [
        {
          "internalType": "bytes32",
          "name": "",
          "type": "bytes32"
        }
      ],
      "stateMutability": "view",
      "type": "function",
      "constant": true
    },
    {
      "inputs": [
        {
          "internalType": "address",
          "name": "account",
          "type": "address"
        },
        {
          "internalType": "uint256",
          "name": "id",
          "type": "uint256"
        }
      ],
      "name": "balanceOf",
      "outputs": [
        {
          "internalType": "uint256",
          "name": "",
          "type": "uint256"
        }
      ],
      "stateMutability": "view",
      "type": "function",
      "constant": true
    },
    {
      "inputs": [
        {
          "internalType": "address[]",
          "name": "accounts",
          "type": "address[]"
        },
        {
          "internalType": "uint256[]",
          "name": "ids",
          "type": "uint256[]"
        }
      ],
      "name": "balanceOfBatch",
      "outputs": [
        {
          "internalType": "uint256[]",
          "name": "",
          "type": "uint256[]"
        }
      ],
      "stateMutability": "view",
      "type": "function",
      "constant": true
    },
    {
      "inputs": [
        {
          "internalType": "address",
          "name": "from",
          "type": "address"
        },
        {
          "internalType": "uint256",
          "name": "id",
          "type": "uint256"
        },
        {
          "internalType": "uint256",
          "name": "amount",
          "type": "uint256"
        }
      ],
      "name": "burn",
      "outputs": [],
      "stateMutability": "nonpayable",
      "type": "function"
    },
    {
      "inputs": [
        {
          "internalType": "string",
          "name": "_name",
          "type": "string"
        },
        {
          "internalType": "string",
          "name": "_metadataHash",
          "type": "string"
        }
      ],
      "name": "createRandomProduct",
      "outputs": [],
      "stateMutability": "nonpayable",
      "type": "function"
    },
    {
      "inputs": [],
      "name": "currentTokenId",
      "outputs": [
        {
          "internalType": "uint256",
          "name": "",
          "type": "uint256"
        }
      ],
      "stateMutability": "view",
      "type": "function",
      "constant": true
    },
    {
      "inputs": [
        {
          "internalType": "bytes32",
          "name": "role",
          "type": "bytes32"
        }
      ],
      "name": "getRoleAdmin",
      "outputs": [
        {
          "internalType": "bytes32",
          "name": "",
          "type": "bytes32"
        }
      ],
      "stateMutability": "view",
      "type": "function",
      "constant": true
    },
    {
      "inputs": [
        {
          "internalType": "bytes32",
          "name": "role",
          "type": "bytes32"
        },
        {
          "internalType": "address",
          "name": "account",
          "type": "address"
        }
      ],
      "name": "grantRole",
      "outputs": [],
      "stateMutability": "nonpayable",
      "type": "function"
    },
    {
      "inputs": [
        {
          "internalType": "bytes32",
          "name": "role",
          "type": "bytes32"
        },
        {
          "internalType": "address",
          "name": "account",
          "type": "address"
        }
      ],
      "name": "hasRole",
      "outputs": [
        {
          "internalType": "bool",
          "name": "",
          "type": "bool"
        }
      ],
      "stateMutability": "view",
      "type": "function",
      "constant": true
    },
    {
      "inputs": [
        {
          "internalType": "address",
          "name": "account",
          "type": "address"
        },
        {
          "internalType": "address",
          "name": "operator",
          "type": "address"
        }
      ],
      "name": "isApprovedForAll",
      "outputs": [
        {
          "internalType": "bool",
          "name": "",
          "type": "bool"
        }
      ],
      "stateMutability": "view",
      "type": "function",
      "constant": true
    },
    {
      "inputs": [
        {
          "internalType": "address",
          "name": "to",
          "type": "address"
        },
        {
          "internalType": "uint256",
          "name": "amount",
          "type": "uint256"
        },
        {
          "internalType": "bytes",
          "name": "data",
          "type": "bytes"
        }
      ],
      "name": "mint",
      "outputs": [],
      "stateMutability": "nonpayable",
      "type": "function"
    },
    {
      "inputs": [],
      "name": "owner",
      "outputs": [
        {
          "internalType": "address",
          "name": "",
          "type": "address"
        }
      ],
      "stateMutability": "view",
      "type": "function",
      "constant": true
    },
    {
      "inputs": [
        {
          "internalType": "uint256",
          "name": "",
          "type": "uint256"
        }
      ],
      "name": "productIdToTokenId",
      "outputs": [
        {
          "internalType": "uint256",
          "name": "",
          "type": "uint256"
        }
      ],
      "stateMutability": "view",
      "type": "function",
      "constant": true
    },
    {
      "inputs": [
        {
          "internalType": "uint256",
          "name": "",
          "type": "uint256"
        }
      ],
      "name": "productToOwner",
      "outputs": [
        {
          "internalType": "address",
          "name": "",
          "type": "address"
        }
      ],
      "stateMutability": "view",
      "type": "function",
      "constant": true
    },
    {
      "inputs": [
        {
          "internalType": "uint256",
          "name": "",
          "type": "uint256"
        }
      ],
      "name": "products",
      "outputs": [
        {
          "internalType": "string",
          "name": "name",
          "type": "string"
        },
        {
          "internalType": "uint256",
          "name": "batch_number",
          "type": "uint256"
        },
        {
          "internalType": "uint256",
          "name": "productDna",
          "type": "uint256"
        },
        {
          "internalType": "uint32",
          "name": "rewardTime",
          "type": "uint32"
        },
        {
          "internalType": "uint256",
          "name": "creationDate",
          "type": "uint256"
        },
        {
          "internalType": "string",
          "name": "metadataHash",
          "type": "string"
        }
      ],
      "stateMutability": "view",
      "type": "function",
      "constant": true
    },
    {
      "inputs": [],
      "name": "renounceOwnership",
      "outputs": [],
      "stateMutability": "nonpayable",
      "type": "function"
    },
    {
      "inputs": [
        {
          "internalType": "bytes32",
          "name": "role",
          "type": "bytes32"
        },
        {
          "internalType": "address",
          "name": "callerConfirmation",
          "type": "address"
        }
      ],
      "name": "renounceRole",
      "outputs": [],
      "stateMutability": "nonpayable",
      "type": "function"
    },
    {
      "inputs": [
        {
          "internalType": "bytes32",
          "name": "role",
          "type": "bytes32"
        },
        {
          "internalType": "address",
          "name": "account",
          "type": "address"
        }
      ],
      "name": "revokeRole",
      "outputs": [],
      "stateMutability": "nonpayable",
      "type": "function"
    },
    {
      "inputs": [
        {
          "internalType": "address",
          "name": "from",
          "type": "address"
        },
        {
          "internalType": "address",
          "name": "to",
          "type": "address"
        },
        {
          "internalType": "uint256[]",
          "name": "ids",
          "type": "uint256[]"
        },
        {
          "internalType": "uint256[]",
          "name": "values",
          "type": "uint256[]"
        },
        {
          "internalType": "bytes",
          "name": "data",
          "type": "bytes"
        }
      ],
      "name": "safeBatchTransferFrom",
      "outputs": [],
      "stateMutability": "nonpayable",
      "type": "function"
    },
    {
      "inputs": [
        {
          "internalType": "address",
          "name": "from",
          "type": "address"
        },
        {
          "internalType": "address",
          "name": "to",
          "type": "address"
        },
        {
          "internalType": "uint256",
          "name": "id",
          "type": "uint256"
        },
        {
          "internalType": "uint256",
          "name": "value",
          "type": "uint256"
        },
        {
          "internalType": "bytes",
          "name": "data",
          "type": "bytes"
        }
      ],
      "name": "safeTransferFrom",
      "outputs": [],
      "stateMutability": "nonpayable",
      "type": "function"
    },
    {
      "inputs": [
        {
          "internalType": "address",
          "name": "operator",
          "type": "address"
        },
        {
          "internalType": "bool",
          "name": "approved",
          "type": "bool"
        }
      ],
      "name": "setApprovalForAll",
      "outputs": [],
      "stateMutability": "nonpayable",
      "type": "function"
    },
    {
      "inputs": [
        {
          "internalType": "address",
          "name": "newOwner",
          "type": "address"
        }
      ],
      "name": "transferOwnership",
      "outputs": [],
      "stateMutability": "nonpayable",
      "type": "function"
    },
    {
      "inputs": [
        {
          "internalType": "uint256",
          "name": "",
          "type": "uint256"
        }
      ],
      "name": "uri",
      "outputs": [
        {
          "internalType": "string",
          "name": "",
          "type": "string"
        }
      ],
      "stateMutability": "view",
      "type": "function",
      "constant": true
    },
    {
      "inputs": [
        {
          "internalType": "bytes4",
          "name": "interfaceId",
          "type": "bytes4"
        }
      ],
      "name": "supportsInterface",
      "outputs": [
        {
          "internalType": "bool",
          "name": "",
          "type": "bool"
        }
      ],
      "stateMutability": "view",
      "type": "function",
      "constant": true
    },
    {
      "inputs": [
        {
          "internalType": "uint256",
          "name": "productId",
          "type": "uint256"
        },
        {
          "internalType": "uint256",
          "name": "amount",
          "type": "uint256"
        }
      ],
      "name": "tokenizeProduct",
      "outputs": [],
      "stateMutability": "nonpayable",
      "type": "function"
    },
    {
      "inputs": [
        {
          "internalType": "uint256",
          "name": "productId",
          "type": "uint256"
        },
        {
          "internalType": "address",
          "name": "to",
          "type": "address"
        },
        {
          "internalType": "uint256",
          "name": "amount",
          "type": "uint256"
        }
      ],
      "name": "transferProduct",
      "outputs": [],
      "stateMutability": "nonpayable",
      "type": "function"
    }
  ],
  "bytecode": "0x60806040526010600455600454600a6200001a91906200051a565b60055560016006553480156200002e575f80fd5b5060405162004268380380620042688339818101604052810190620000549190620005cf565b80806040518060600160405280602a81526020016200423e602a9139620000845f801b336200015760201b60201c565b50620000b77feefb95e842a3287179d933b4460be539a1d5af11aa8b325bb45c5c8dc92de4ed336200015760201b60201c565b50620000c9816200025260201b60201c565b505f73ffffffffffffffffffffffffffffffffffffffff168173ffffffffffffffffffffffffffffffffffffffff16036200013d575f6040517f1e4fbdf700000000000000000000000000000000000000000000000000000000815260040162000134919062000610565b60405180910390fd5b6200014e816200026760201b60201c565b5050506200096a565b5f6200016a83836200032a60201b60201c565b620002485760015f808581526020019081526020015f205f015f8473ffffffffffffffffffffffffffffffffffffffff1673ffffffffffffffffffffffffffffffffffffffff1681526020019081526020015f205f6101000a81548160ff021916908315150217905550620001e46200038d60201b60201c565b73ffffffffffffffffffffffffffffffffffffffff168273ffffffffffffffffffffffffffffffffffffffff16847f2f8788117e7eff1d82e926ec794901d17c78024a50270940304540a733656f0d60405160405180910390a4600190506200024c565b5f90505b92915050565b806009908162000263919062000886565b5050565b5f600a5f9054906101000a900473ffffffffffffffffffffffffffffffffffffffff16905081600a5f6101000a81548173ffffffffffffffffffffffffffffffffffffffff021916908373ffffffffffffffffffffffffffffffffffffffff1602179055508173ffffffffffffffffffffffffffffffffffffffff168173ffffffffffffffffffffffffffffffffffffffff167f8be0079c531659141344cd1fd0a4f28419497f9722a3daafe3b4186f6b6457e060405160405180910390a35050565b5f805f8481526020019081526020015f205f015f8373ffffffffffffffffffffffffffffffffffffffff1673ffffffffffffffffffffffffffffffffffffffff1681526020019081526020015f205f9054906101000a900460ff16905092915050565b5f33905090565b7f4e487b71000000000000000000000000000000000000000000000000000000005f52601160045260245ffd5b5f8160011c9050919050565b5f808291508390505b60018511156200041e57808604811115620003f657620003f562000394565b5b6001851615620004065780820291505b80810290506200041685620003c1565b9450620003d6565b94509492505050565b5f826200043857600190506200050a565b8162000447575f90506200050a565b81600181146200046057600281146200046b57620004a1565b60019150506200050a565b60ff84111562000480576200047f62000394565b5b8360020a9150848211156200049a576200049962000394565b5b506200050a565b5060208310610133831016604e8410600b8410161715620004db5782820a905083811115620004d557620004d462000394565b5b6200050a565b620004ea8484846001620003cd565b9250905081840481111562000504576200050362000394565b5b81810290505b9392505050565b5f819050919050565b5f620005268262000511565b9150620005338362000511565b9250620005627fffffffffffffffffffffffffffffffffffffffffffffffffffffffffffffffff848462000427565b905092915050565b5f80fd5b5f73ffffffffffffffffffffffffffffffffffffffff82169050919050565b5f62000599826200056e565b9050919050565b620005ab816200058d565b8114620005b6575f80fd5b50565b5f81519050620005c981620005a0565b92915050565b5f60208284031215620005e757620005e66200056a565b5b5f620005f684828501620005b9565b91505092915050565b6200060a816200058d565b82525050565b5f602082019050620006255f830184620005ff565b92915050565b5f81519050919050565b7f4e487b71000000000000000000000000000000000000000000000000000000005f52604160045260245ffd5b7f4e487b71000000000000000000000000000000000000000000000000000000005f52602260045260245ffd5b5f6002820490506001821680620006a757607f821691505b602082108103620006bd57620006bc62000662565b5b50919050565b5f819050815f5260205f209050919050565b5f6020601f8301049050919050565b5f82821b905092915050565b5f60088302620007217fffffffffffffffffffffffffffffffffffffffffffffffffffffffffffffffff82620006e4565b6200072d8683620006e4565b95508019841693508086168417925050509392505050565b5f819050919050565b5f6200076e62000768620007628462000511565b62000745565b62000511565b9050919050565b5f819050919050565b62000789836200074e565b620007a1620007988262000775565b848454620006f0565b825550505050565b5f90565b620007b7620007a9565b620007c48184846200077e565b505050565b5b81811015620007eb57620007df5f82620007ad565b600181019050620007ca565b5050565b601f8211156200083a576200080481620006c3565b6200080f84620006d5565b810160208510156200081f578190505b620008376200082e85620006d5565b830182620007c9565b50505b505050565b5f82821c905092915050565b5f6200085c5f19846008026200083f565b1980831691505092915050565b5f6200087683836200084b565b9150826002028217905092915050565b62000891826200062b565b67ffffffffffffffff811115620008ad57620008ac62000635565b5b620008b982546200068f565b620008c6828285620007ef565b5f60209050601f831160018114620008fc575f8415620008e7578287015190505b620008f3858262000869565b86555062000962565b601f1984166200090c86620006c3565b5f5b8281101562000935578489015182556001820191506020850194506020810190506200090e565b8683101562000955578489015162000951601f8916826200084b565b8355505b6001600288020188555050505b505050505050565b6138c680620009785f395ff3fe608060405234801561000f575f80fd5b50600436106101cb575f3560e01c806377d196bd11610102578063a22cb465116100a0578063f0bd87cc1161006f578063f0bd87cc14610550578063f242432a1461056e578063f2fde38b1461058a578063f5298aca146105a6576101cb565b8063a22cb465146104cc578063d547741f146104e8578063dfaa651d14610504578063e985e9c514610520576101cb565b806391d14854116100dc57806391d148541461044457806394d008ef14610474578063965288b014610490578063a217fddf146104ae576101cb565b806377d196bd146103d55780637acc0b20146103f15780638da5cb5b14610426576101cb565b80632f2ff15d1161016f578063420fadc811610149578063420fadc81461033b5780634e1273f41461036b5780635c465b721461039b578063715018a6146103cb576101cb565b80632f2ff15d146102e7578063313aa18e1461030357806336568abe1461031f576101cb565b80630e89341c116101ab5780630e89341c1461024d5780632115e7bf1461027d578063248a9ca31461029b5780632eb2c2d6146102cb576101cb565b80629a9b7b146101cf578062fdd58e146101ed57806301ffc9a71461021d575b5f80fd5b6101d76105c2565b6040516101e49190612441565b60405180910390f35b610207600480360381019061020291906124ef565b6105c8565b6040516102149190612441565b60405180910390f35b61023760048036038101906102329190612582565b61061e565b60405161024491906125c7565b60405180910390f35b610267600480360381019061026291906125e0565b61062f565b6040516102749190612695565b60405180910390f35b6102856106c1565b60405161029291906126cd565b60405180910390f35b6102b560048036038101906102b09190612710565b6106e5565b6040516102c291906126cd565b60405180910390f35b6102e560048036038101906102e0919061292b565b610701565b005b61030160048036038101906102fc91906129f6565b6107a8565b005b61031d60048036038101906103189190612a34565b6107ca565b005b610339600480360381019061033491906129f6565b61084c565b005b610355600480360381019061035091906125e0565b6108c7565b6040516103629190612a93565b60405180910390f35b61038560048036038101906103809190612b6c565b6108f7565b6040516103929190612c99565b60405180910390f35b6103b560048036038101906103b091906125e0565b610a04565b6040516103c29190612441565b60405180910390f35b6103d3610a19565b005b6103ef60048036038101906103ea9190612cb9565b610a2c565b005b61040b600480360381019061040691906125e0565b610b04565b60405161041d96959493929190612d15565b60405180910390f35b61042e610c66565b60405161043b9190612a93565b60405180910390f35b61045e600480360381019061045991906129f6565b610c8e565b60405161046b91906125c7565b60405180910390f35b61048e60048036038101906104899190612d82565b610cf1565b005b610498610d23565b6040516104a591906126cd565b60405180910390f35b6104b6610d47565b6040516104c391906126cd565b60405180910390f35b6104e660048036038101906104e19190612e18565b610d4d565b005b61050260048036038101906104fd91906129f6565b610d63565b005b61051e60048036038101906105199190612ef4565b610d85565b005b61053a60048036038101906105359190612f6a565b610de6565b60405161054791906125c7565b60405180910390f35b610558610e74565b60405161056591906126cd565b60405180910390f35b61058860048036038101906105839190612fa8565b610e98565b005b6105a4600480360381019061059f919061303b565b610f3f565b005b6105c060048036038101906105bb9190613066565b610fc3565b005b600b5481565b5f60075f8381526020019081526020015f205f8473ffffffffffffffffffffffffffffffffffffffff1673ffffffffffffffffffffffffffffffffffffffff1681526020019081526020015f2054905092915050565b5f61062882610fdb565b9050919050565b60606009805461063e906130e3565b80601f016020809104026020016040519081016040528092919081815260200182805461066a906130e3565b80156106b55780601f1061068c576101008083540402835291602001916106b5565b820191905f5260205f20905b81548152906001019060200180831161069857829003601f168201915b50505050509050919050565b7f2a5f906c256a5d799494fcd066e1f6c077689de1cdb65052a1624de4bace99bf81565b5f805f8381526020019081526020015f20600101549050919050565b5f61070a6110bc565b90508073ffffffffffffffffffffffffffffffffffffffff168673ffffffffffffffffffffffffffffffffffffffff161415801561074f575061074d8682610de6565b155b156107935780866040517fe237d92200000000000000000000000000000000000000000000000000000000815260040161078a929190613113565b60405180910390fd5b6107a086868686866110c3565b505050505050565b6107b1826106e5565b6107ba816111b7565b6107c483836111cb565b50505050565b5f600c5f8581526020019081526020015f20549050816107ea33836105c8565b101561082b576040517f08c379a000000000000000000000000000000000000000000000000000000000815260040161082290613184565b60405180910390fd5b6108463384838560405180602001604052805f815250610e98565b50505050565b6108546110bc565b73ffffffffffffffffffffffffffffffffffffffff168173ffffffffffffffffffffffffffffffffffffffff16146108b8576040517f6697b23200000000000000000000000000000000000000000000000000000000815260040160405180910390fd5b6108c282826112b4565b505050565b6001602052805f5260405f205f915054906101000a900473ffffffffffffffffffffffffffffffffffffffff1681565b6060815183511461094357815183516040517f5b05999100000000000000000000000000000000000000000000000000000000815260040161093a9291906131a2565b60405180910390fd5b5f835167ffffffffffffffff81111561095f5761095e61273f565b5b60405190808252806020026020018201604052801561098d5781602001602082028036833780820191505090505b5090505f5b84518110156109f9576109c96109b1828761139d90919063ffffffff16565b6109c483876113b090919063ffffffff16565b6105c8565b8282815181106109dc576109db6131c9565b5b602002602001018181525050806109f290613223565b9050610992565b508091505092915050565b600c602052805f5260405f205f915090505481565b610a216113c3565b610a2a5f61144a565b565b3373ffffffffffffffffffffffffffffffffffffffff1660015f8481526020019081526020015f205f9054906101000a900473ffffffffffffffffffffffffffffffffffffffff1673ffffffffffffffffffffffffffffffffffffffff1614610aca576040517f08c379a0000000000000000000000000000000000000000000000000000000008152600401610ac1906132b4565b60405180910390fd5b5f600b54905080600c5f8581526020019081526020015f2081905550610aff338360405180602001604052805f815250610cf1565b505050565b60038181548110610b13575f80fd5b905f5260205f2090600602015f91509050805f018054610b32906130e3565b80601f0160208091040260200160405190810160405280929190818152602001828054610b5e906130e3565b8015610ba95780601f10610b8057610100808354040283529160200191610ba9565b820191905f5260205f20905b815481529060010190602001808311610b8c57829003601f168201915b505050505090806001015490806002015490806003015f9054906101000a900463ffffffff1690806004015490806005018054610be5906130e3565b80601f0160208091040260200160405190810160405280929190818152602001828054610c11906130e3565b8015610c5c5780601f10610c3357610100808354040283529160200191610c5c565b820191905f5260205f20905b815481529060010190602001808311610c3f57829003601f168201915b5050505050905086565b5f600a5f9054906101000a900473ffffffffffffffffffffffffffffffffffffffff16905090565b5f805f8481526020019081526020015f205f015f8373ffffffffffffffffffffffffffffffffffffffff1673ffffffffffffffffffffffffffffffffffffffff1681526020019081526020015f205f9054906101000a900460ff16905092915050565b610cf96113c3565b610d0783600b54848461150d565b600b5f815480929190610d1990613223565b9190505550505050565b7feefb95e842a3287179d933b4460be539a1d5af11aa8b325bb45c5c8dc92de4ed81565b5f801b81565b610d5f610d586110bc565b83836115a2565b5050565b610d6c826106e5565b610d75816111b7565b610d7f83836112b4565b50505050565b7feefb95e842a3287179d933b4460be539a1d5af11aa8b325bb45c5c8dc92de4ed610daf816111b7565b5f610db98461170b565b9050606481610dc891906132ff565b81610dd3919061332f565b9050610de084828561174e565b50505050565b5f60085f8473ffffffffffffffffffffffffffffffffffffffff1673ffffffffffffffffffffffffffffffffffffffff1681526020019081526020015f205f8373ffffffffffffffffffffffffffffffffffffffff1673ffffffffffffffffffffffffffffffffffffffff1681526020019081526020015f205f9054906101000a900460ff16905092915050565b7ffbd454f36a7e1a388bd6fc3ab10d434aa4578f811acbbcf33afb1c697486313c81565b5f610ea16110bc565b90508073ffffffffffffffffffffffffffffffffffffffff168673ffffffffffffffffffffffffffffffffffffffff1614158015610ee65750610ee48682610de6565b155b15610f2a5780866040517fe237d922000000000000000000000000000000000000000000000000000000008152600401610f21929190613113565b60405180910390fd5b610f37868686868661197b565b505050505050565b610f476113c3565b5f73ffffffffffffffffffffffffffffffffffffffff168173ffffffffffffffffffffffffffffffffffffffff1603610fb7575f6040517f1e4fbdf7000000000000000000000000000000000000000000000000000000008152600401610fae9190612a93565b60405180910390fd5b610fc08161144a565b50565b610fcb6113c3565b610fd6838383611a81565b505050565b5f7fd9b67a26000000000000000000000000000000000000000000000000000000007bffffffffffffffffffffffffffffffffffffffffffffffffffffffff1916827bffffffffffffffffffffffffffffffffffffffffffffffffffffffff191614806110a557507f0e89341c000000000000000000000000000000000000000000000000000000007bffffffffffffffffffffffffffffffffffffffffffffffffffffffff1916827bffffffffffffffffffffffffffffffffffffffffffffffffffffffff1916145b806110b557506110b482611b23565b5b9050919050565b5f33905090565b5f73ffffffffffffffffffffffffffffffffffffffff168473ffffffffffffffffffffffffffffffffffffffff1603611133575f6040517f57f447ce00000000000000000000000000000000000000000000000000000000815260040161112a9190612a93565b60405180910390fd5b5f73ffffffffffffffffffffffffffffffffffffffff168573ffffffffffffffffffffffffffffffffffffffff16036111a3575f6040517f01a8351400000000000000000000000000000000000000000000000000000000815260040161119a9190612a93565b60405180910390fd5b6111b08585858585611b9c565b5050505050565b6111c8816111c36110bc565b611c48565b50565b5f6111d68383610c8e565b6112aa5760015f808581526020019081526020015f205f015f8473ffffffffffffffffffffffffffffffffffffffff1673ffffffffffffffffffffffffffffffffffffffff1681526020019081526020015f205f6101000a81548160ff0219169083151502179055506112476110bc565b73ffffffffffffffffffffffffffffffffffffffff168273ffffffffffffffffffffffffffffffffffffffff16847f2f8788117e7eff1d82e926ec794901d17c78024a50270940304540a733656f0d60405160405180910390a4600190506112ae565b5f90505b92915050565b5f6112bf8383610c8e565b15611393575f805f8581526020019081526020015f205f015f8473ffffffffffffffffffffffffffffffffffffffff1673ffffffffffffffffffffffffffffffffffffffff1681526020019081526020015f205f6101000a81548160ff0219169083151502179055506113306110bc565b73ffffffffffffffffffffffffffffffffffffffff168273ffffffffffffffffffffffffffffffffffffffff16847ff6391f5c32d9c69d2a47ea670b442974b53935d1edc7fd64eb21e047a839171b60405160405180910390a460019050611397565b5f90505b92915050565b5f60208202602084010151905092915050565b5f60208202602084010151905092915050565b6113cb6110bc565b73ffffffffffffffffffffffffffffffffffffffff166113e9610c66565b73ffffffffffffffffffffffffffffffffffffffff16146114485761140c6110bc565b6040517f118cdaa700000000000000000000000000000000000000000000000000000000815260040161143f9190612a93565b60405180910390fd5b565b5f600a5f9054906101000a900473ffffffffffffffffffffffffffffffffffffffff16905081600a5f6101000a81548173ffffffffffffffffffffffffffffffffffffffff021916908373ffffffffffffffffffffffffffffffffffffffff1602179055508173ffffffffffffffffffffffffffffffffffffffff168173ffffffffffffffffffffffffffffffffffffffff167f8be0079c531659141344cd1fd0a4f28419497f9722a3daafe3b4186f6b6457e060405160405180910390a35050565b5f73ffffffffffffffffffffffffffffffffffffffff168473ffffffffffffffffffffffffffffffffffffffff160361157d575f6040517f57f447ce0000000000000000000000000000000000000000000000000000000081526004016115749190612a93565b60405180910390fd5b5f806115898585611c99565b9150915061159a5f87848487611b9c565b505050505050565b5f73ffffffffffffffffffffffffffffffffffffffff168273ffffffffffffffffffffffffffffffffffffffff1603611612575f6040517fced3e1000000000000000000000000000000000000000000000000000000000081526004016116099190612a93565b60405180910390fd5b8060085f8573ffffffffffffffffffffffffffffffffffffffff1673ffffffffffffffffffffffffffffffffffffffff1681526020019081526020015f205f8473ffffffffffffffffffffffffffffffffffffffff1673ffffffffffffffffffffffffffffffffffffffff1681526020019081526020015f205f6101000a81548160ff0219169083151502179055508173ffffffffffffffffffffffffffffffffffffffff168373ffffffffffffffffffffffffffffffffffffffff167f17307eab39ab6107e8899845ad3d59bd9653f200f220920489ca2b5937696c31836040516116fe91906125c7565b60405180910390a3505050565b5f808260405160200161171e919061339c565b604051602081830303815290604052805190602001205f1c90506005548161174691906132ff565b915050919050565b7feefb95e842a3287179d933b4460be539a1d5af11aa8b325bb45c5c8dc92de4ed611778816111b7565b60036040518060c0016040528086815260200160065481526020018581526020015f63ffffffff16815260200142815260200184815250908060018154018082558091505060019003905f5260205f2090600602015f909190919091505f820151815f0190816117e8919061354f565b5060208201518160010155604082015181600201556060820151816003015f6101000a81548163ffffffff021916908363ffffffff1602179055506080820151816004015560a0820151816005019081611842919061354f565b5050505f6001600380549050611858919061332f565b90503360015f8381526020019081526020015f205f6101000a81548173ffffffffffffffffffffffffffffffffffffffff021916908373ffffffffffffffffffffffffffffffffffffffff16021790555060025f3373ffffffffffffffffffffffffffffffffffffffff1673ffffffffffffffffffffffffffffffffffffffff1681526020019081526020015f205f8154809291906118f690613223565b91905055507f162b73be7176f80d0bf84c8c443a2475901e66c38ed5a4809970d3042125c3fd856006548686604051611932949392919061361e565b60405180910390a15f600a60065461194a91906132ff565b0361195c576001600681905550611974565b60065f81548092919061196e90613223565b91905055505b5050505050565b5f73ffffffffffffffffffffffffffffffffffffffff168473ffffffffffffffffffffffffffffffffffffffff16036119eb575f6040517f57f447ce0000000000000000000000000000000000000000000000000000000081526004016119e29190612a93565b60405180910390fd5b5f73ffffffffffffffffffffffffffffffffffffffff168573ffffffffffffffffffffffffffffffffffffffff1603611a5b575f6040517f01a83514000000000000000000000000000000000000000000000000000000008152600401611a529190612a93565b60405180910390fd5b5f80611a678585611c99565b91509150611a788787848487611b9c565b50505050505050565b5f73ffffffffffffffffffffffffffffffffffffffff168373ffffffffffffffffffffffffffffffffffffffff1603611af1575f6040517f01a83514000000000000000000000000000000000000000000000000000000008152600401611ae89190612a93565b60405180910390fd5b5f80611afd8484611c99565b91509150611b1c855f848460405180602001604052805f815250611b9c565b5050505050565b5f7f7965db0b000000000000000000000000000000000000000000000000000000007bffffffffffffffffffffffffffffffffffffffffffffffffffffffff1916827bffffffffffffffffffffffffffffffffffffffffffffffffffffffff19161480611b955750611b9482611cc9565b5b9050919050565b611ba885858585611d32565b5f73ffffffffffffffffffffffffffffffffffffffff168473ffffffffffffffffffffffffffffffffffffffff1614611c41575f611be46110bc565b90506001845103611c30575f611c035f866113b090919063ffffffff16565b90505f611c195f866113b090919063ffffffff16565b9050611c298389898585896120cb565b5050611c3f565b611c3e81878787878761227a565b5b505b5050505050565b611c528282610c8e565b611c955780826040517fe2517d3f000000000000000000000000000000000000000000000000000000008152600401611c8c92919061366f565b60405180910390fd5b5050565b60608060405191506001825283602083015260408201905060018152826020820152604081016040529250929050565b5f7f01ffc9a7000000000000000000000000000000000000000000000000000000007bffffffffffffffffffffffffffffffffffffffffffffffffffffffff1916827bffffffffffffffffffffffffffffffffffffffffffffffffffffffff1916149050919050565b8051825114611d7c57815181516040517f5b059991000000000000000000000000000000000000000000000000000000008152600401611d739291906131a2565b60405180910390fd5b5f611d856110bc565b90505f5b8351811015611f8a575f611da682866113b090919063ffffffff16565b90505f611dbc83866113b090919063ffffffff16565b90505f73ffffffffffffffffffffffffffffffffffffffff168873ffffffffffffffffffffffffffffffffffffffff1614611ee1575f60075f8481526020019081526020015f205f8a73ffffffffffffffffffffffffffffffffffffffff1673ffffffffffffffffffffffffffffffffffffffff1681526020019081526020015f2054905081811015611e8c57888183856040517f03dee4c5000000000000000000000000000000000000000000000000000000008152600401611e839493929190613696565b60405180910390fd5b81810360075f8581526020019081526020015f205f8b73ffffffffffffffffffffffffffffffffffffffff1673ffffffffffffffffffffffffffffffffffffffff1681526020019081526020015f2081905550505b5f73ffffffffffffffffffffffffffffffffffffffff168773ffffffffffffffffffffffffffffffffffffffff1614611f77578060075f8481526020019081526020015f205f8973ffffffffffffffffffffffffffffffffffffffff1673ffffffffffffffffffffffffffffffffffffffff1681526020019081526020015f205f828254611f6f91906136d9565b925050819055505b505080611f8390613223565b9050611d89565b506001835103612045575f611fa85f856113b090919063ffffffff16565b90505f611fbe5f856113b090919063ffffffff16565b90508573ffffffffffffffffffffffffffffffffffffffff168773ffffffffffffffffffffffffffffffffffffffff168473ffffffffffffffffffffffffffffffffffffffff167fc3d58168c5ae7397731d063d5bbf3d657854427343f4c083240f7aacaa2d0f6285856040516120369291906131a2565b60405180910390a450506120c4565b8373ffffffffffffffffffffffffffffffffffffffff168573ffffffffffffffffffffffffffffffffffffffff168273ffffffffffffffffffffffffffffffffffffffff167f4a39dc06d4c0dbc64b70af90fd698a233a518aa5d07e595d983b8c0526c8f7fb86866040516120bb92919061370c565b60405180910390a45b5050505050565b5f8473ffffffffffffffffffffffffffffffffffffffff163b1115612272578373ffffffffffffffffffffffffffffffffffffffff1663f23a6e6187878686866040518663ffffffff1660e01b815260040161212b959493929190613793565b6020604051808303815f875af192505050801561216657506040513d601f19601f8201168201806040525081019061216391906137ff565b60015b6121e7573d805f8114612194576040519150601f19603f3d011682016040523d82523d5f602084013e612199565b606091505b505f8151036121df57846040517f57f447ce0000000000000000000000000000000000000000000000000000000081526004016121d69190612a93565b60405180910390fd5b805181602001fd5b63f23a6e6160e01b7bffffffffffffffffffffffffffffffffffffffffffffffffffffffff1916817bffffffffffffffffffffffffffffffffffffffffffffffffffffffff19161461227057846040517f57f447ce0000000000000000000000000000000000000000000000000000000081526004016122679190612a93565b60405180910390fd5b505b505050505050565b5f8473ffffffffffffffffffffffffffffffffffffffff163b1115612421578373ffffffffffffffffffffffffffffffffffffffff1663bc197c8187878686866040518663ffffffff1660e01b81526004016122da95949392919061382a565b6020604051808303815f875af192505050801561231557506040513d601f19601f8201168201806040525081019061231291906137ff565b60015b612396573d805f8114612343576040519150601f19603f3d011682016040523d82523d5f602084013e612348565b606091505b505f81510361238e57846040517f57f447ce0000000000000000000000000000000000000000000000000000000081526004016123859190612a93565b60405180910390fd5b805181602001fd5b63bc197c8160e01b7bffffffffffffffffffffffffffffffffffffffffffffffffffffffff1916817bffffffffffffffffffffffffffffffffffffffffffffffffffffffff19161461241f57846040517f57f447ce0000000000000000000000000000000000000000000000000000000081526004016124169190612a93565b60405180910390fd5b505b505050505050565b5f819050919050565b61243b81612429565b82525050565b5f6020820190506124545f830184612432565b92915050565b5f604051905090565b5f80fd5b5f80fd5b5f73ffffffffffffffffffffffffffffffffffffffff82169050919050565b5f6124948261246b565b9050919050565b6124a48161248a565b81146124ae575f80fd5b50565b5f813590506124bf8161249b565b92915050565b6124ce81612429565b81146124d8575f80fd5b50565b5f813590506124e9816124c5565b92915050565b5f806040838503121561250557612504612463565b5b5f612512858286016124b1565b9250506020612523858286016124db565b9150509250929050565b5f7fffffffff0000000000000000000000000000000000000000000000000000000082169050919050565b6125618161252d565b811461256b575f80fd5b50565b5f8135905061257c81612558565b92915050565b5f6020828403121561259757612596612463565b5b5f6125a48482850161256e565b91505092915050565b5f8115159050919050565b6125c1816125ad565b82525050565b5f6020820190506125da5f8301846125b8565b92915050565b5f602082840312156125f5576125f4612463565b5b5f612602848285016124db565b91505092915050565b5f81519050919050565b5f82825260208201905092915050565b5f5b83811015612642578082015181840152602081019050612627565b5f8484015250505050565b5f601f19601f8301169050919050565b5f6126678261260b565b6126718185612615565b9350612681818560208601612625565b61268a8161264d565b840191505092915050565b5f6020820190508181035f8301526126ad818461265d565b905092915050565b5f819050919050565b6126c7816126b5565b82525050565b5f6020820190506126e05f8301846126be565b92915050565b6126ef816126b5565b81146126f9575f80fd5b50565b5f8135905061270a816126e6565b92915050565b5f6020828403121561272557612724612463565b5b5f612732848285016126fc565b91505092915050565b5f80fd5b7f4e487b71000000000000000000000000000000000000000000000000000000005f52604160045260245ffd5b6127758261264d565b810181811067ffffffffffffffff821117156127945761279361273f565b5b80604052505050565b5f6127a661245a565b90506127b2828261276c565b919050565b5f67ffffffffffffffff8211156127d1576127d061273f565b5b602082029050602081019050919050565b5f80fd5b5f6127f86127f3846127b7565b61279d565b9050808382526020820190506020840283018581111561281b5761281a6127e2565b5b835b81811015612844578061283088826124db565b84526020840193505060208101905061281d565b5050509392505050565b5f82601f8301126128625761286161273b565b5b81356128728482602086016127e6565b91505092915050565b5f80fd5b5f67ffffffffffffffff8211156128995761289861273f565b5b6128a28261264d565b9050602081019050919050565b828183375f83830152505050565b5f6128cf6128ca8461287f565b61279d565b9050828152602081018484840111156128eb576128ea61287b565b5b6128f68482856128af565b509392505050565b5f82601f8301126129125761291161273b565b5b81356129228482602086016128bd565b91505092915050565b5f805f805f60a0868803121561294457612943612463565b5b5f612951888289016124b1565b9550506020612962888289016124b1565b945050604086013567ffffffffffffffff81111561298357612982612467565b5b61298f8882890161284e565b935050606086013567ffffffffffffffff8111156129b0576129af612467565b5b6129bc8882890161284e565b925050608086013567ffffffffffffffff8111156129dd576129dc612467565b5b6129e9888289016128fe565b9150509295509295909350565b5f8060408385031215612a0c57612a0b612463565b5b5f612a19858286016126fc565b9250506020612a2a858286016124b1565b9150509250929050565b5f805f60608486031215612a4b57612a4a612463565b5b5f612a58868287016124db565b9350506020612a69868287016124b1565b9250506040612a7a868287016124db565b9150509250925092565b612a8d8161248a565b82525050565b5f602082019050612aa65f830184612a84565b92915050565b5f67ffffffffffffffff821115612ac657612ac561273f565b5b602082029050602081019050919050565b5f612ae9612ae484612aac565b61279d565b90508083825260208201905060208402830185811115612b0c57612b0b6127e2565b5b835b81811015612b355780612b2188826124b1565b845260208401935050602081019050612b0e565b5050509392505050565b5f82601f830112612b5357612b5261273b565b5b8135612b63848260208601612ad7565b91505092915050565b5f8060408385031215612b8257612b81612463565b5b5f83013567ffffffffffffffff811115612b9f57612b9e612467565b5b612bab85828601612b3f565b925050602083013567ffffffffffffffff811115612bcc57612bcb612467565b5b612bd88582860161284e565b9150509250929050565b5f81519050919050565b5f82825260208201905092915050565b5f819050602082019050919050565b612c1481612429565b82525050565b5f612c258383612c0b565b60208301905092915050565b5f602082019050919050565b5f612c4782612be2565b612c518185612bec565b9350612c5c83612bfc565b805f5b83811015612c8c578151612c738882612c1a565b9750612c7e83612c31565b925050600181019050612c5f565b5085935050505092915050565b5f6020820190508181035f830152612cb18184612c3d565b905092915050565b5f8060408385031215612ccf57612cce612463565b5b5f612cdc858286016124db565b9250506020612ced858286016124db565b9150509250929050565b5f63ffffffff82169050919050565b612d0f81612cf7565b82525050565b5f60c0820190508181035f830152612d2d818961265d565b9050612d3c6020830188612432565b612d496040830187612432565b612d566060830186612d06565b612d636080830185612432565b81810360a0830152612d75818461265d565b9050979650505050505050565b5f805f60608486031215612d9957612d98612463565b5b5f612da6868287016124b1565b9350506020612db7868287016124db565b925050604084013567ffffffffffffffff811115612dd857612dd7612467565b5b612de4868287016128fe565b9150509250925092565b612df7816125ad565b8114612e01575f80fd5b50565b5f81359050612e1281612dee565b92915050565b5f8060408385031215612e2e57612e2d612463565b5b5f612e3b858286016124b1565b9250506020612e4c85828601612e04565b9150509250929050565b5f67ffffffffffffffff821115612e7057612e6f61273f565b5b612e798261264d565b9050602081019050919050565b5f612e98612e9384612e56565b61279d565b905082815260208101848484011115612eb457612eb361287b565b5b612ebf8482856128af565b509392505050565b5f82601f830112612edb57612eda61273b565b5b8135612eeb848260208601612e86565b91505092915050565b5f8060408385031215612f0a57612f09612463565b5b5f83013567ffffffffffffffff811115612f2757612f26612467565b5b612f3385828601612ec7565b925050602083013567ffffffffffffffff811115612f5457612f53612467565b5b612f6085828601612ec7565b9150509250929050565b5f8060408385031215612f8057612f7f612463565b5b5f612f8d858286016124b1565b9250506020612f9e858286016124b1565b9150509250929050565b5f805f805f60a08688031215612fc157612fc0612463565b5b5f612fce888289016124b1565b9550506020612fdf888289016124b1565b9450506040612ff0888289016124db565b9350506060613001888289016124db565b925050608086013567ffffffffffffffff81111561302257613021612467565b5b61302e888289016128fe565b9150509295509295909350565b5f602082840312156130505761304f612463565b5b5f61305d848285016124b1565b91505092915050565b5f805f6060848603121561307d5761307c612463565b5b5f61308a868287016124b1565b935050602061309b868287016124db565b92505060406130ac868287016124db565b9150509250925092565b7f4e487b71000000000000000000000000000000000000000000000000000000005f52602260045260245ffd5b5f60028204905060018216806130fa57607f821691505b60208210810361310d5761310c6130b6565b5b50919050565b5f6040820190506131265f830185612a84565b6131336020830184612a84565b9392505050565b7f4e6f7420656e6f75676820746f6b656e730000000000000000000000000000005f82015250565b5f61316e601183612615565b91506131798261313a565b602082019050919050565b5f6020820190508181035f83015261319b81613162565b9050919050565b5f6040820190506131b55f830185612432565b6131c26020830184612432565b9392505050565b7f4e487b71000000000000000000000000000000000000000000000000000000005f52603260045260245ffd5b7f4e487b71000000000000000000000000000000000000000000000000000000005f52601160045260245ffd5b5f61322d82612429565b91507fffffffffffffffffffffffffffffffffffffffffffffffffffffffffffffffff820361325f5761325e6131f6565b5b600182019050919050565b7f4e6f7420746865206f776e6572206f66207468652070726f64756374000000005f82015250565b5f61329e601c83612615565b91506132a98261326a565b602082019050919050565b5f6020820190508181035f8301526132cb81613292565b9050919050565b7f4e487b71000000000000000000000000000000000000000000000000000000005f52601260045260245ffd5b5f61330982612429565b915061331483612429565b925082613324576133236132d2565b5b828206905092915050565b5f61333982612429565b915061334483612429565b925082820390508181111561335c5761335b6131f6565b5b92915050565b5f81905092915050565b5f6133768261260b565b6133808185613362565b9350613390818560208601612625565b80840191505092915050565b5f6133a7828461336c565b915081905092915050565b5f819050815f5260205f209050919050565b5f6020601f8301049050919050565b5f82821b905092915050565b5f6008830261340e7fffffffffffffffffffffffffffffffffffffffffffffffffffffffffffffffff826133d3565b61341886836133d3565b95508019841693508086168417925050509392505050565b5f819050919050565b5f61345361344e61344984612429565b613430565b612429565b9050919050565b5f819050919050565b61346c83613439565b6134806134788261345a565b8484546133df565b825550505050565b5f90565b613494613488565b61349f818484613463565b505050565b5b818110156134c2576134b75f8261348c565b6001810190506134a5565b5050565b601f821115613507576134d8816133b2565b6134e1846133c4565b810160208510156134f0578190505b6135046134fc856133c4565b8301826134a4565b50505b505050565b5f82821c905092915050565b5f6135275f198460080261350c565b1980831691505092915050565b5f61353f8383613518565b9150826002028217905092915050565b6135588261260b565b67ffffffffffffffff8111156135715761357061273f565b5b61357b82546130e3565b6135868282856134c6565b5f60209050601f8311600181146135b7575f84156135a5578287015190505b6135af8582613534565b865550613616565b601f1984166135c5866133b2565b5f5b828110156135ec578489015182556001820191506020850194506020810190506135c7565b868310156136095784890151613605601f891682613518565b8355505b6001600288020188555050505b505050505050565b5f6080820190508181035f830152613636818761265d565b90506136456020830186612432565b6136526040830185612432565b8181036060830152613664818461265d565b905095945050505050565b5f6040820190506136825f830185612a84565b61368f60208301846126be565b9392505050565b5f6080820190506136a95f830187612a84565b6136b66020830186612432565b6136c36040830185612432565b6136d06060830184612432565b95945050505050565b5f6136e382612429565b91506136ee83612429565b9250828201905080821115613706576137056131f6565b5b92915050565b5f6040820190508181035f8301526137248185612c3d565b905081810360208301526137388184612c3d565b90509392505050565b5f81519050919050565b5f82825260208201905092915050565b5f61376582613741565b61376f818561374b565b935061377f818560208601612625565b6137888161264d565b840191505092915050565b5f60a0820190506137a65f830188612a84565b6137b36020830187612a84565b6137c06040830186612432565b6137cd6060830185612432565b81810360808301526137df818461375b565b90509695505050505050565b5f815190506137f981612558565b92915050565b5f6020828403121561381457613813612463565b5b5f613821848285016137eb565b91505092915050565b5f60a08201905061383d5f830188612a84565b61384a6020830187612a84565b818103604083015261385c8186612c3d565b905081810360608301526138708185612c3d565b90508181036080830152613884818461375b565b9050969550505050505056fea26469706673582212204458cb819ce348ebaef13ecf8fc99b0b6e1f40dc15d5a76cedf25888425a2c0064736f6c6343000815003368747470733a2f2f6170692e6578616d706c652e636f6d2f6d657461646174612f7b69647d2e6a736f6e",
  "immutableReferences": {},
  "source": "// SPDX-License-Identifier: MIT\npragma solidity ^0.8.0;\n\nimport \"./first_prac.sol\";\nimport \"./erc1155.sol\";\n\ncontract ProductOwnership is supplyChain, ProductERC1155 {\n    mapping(uint => uint) public productIdToTokenId;\n\n    // Pass the initialOwner parameter to the ProductERC1155 constructor\n    constructor(address initialOwner) ProductERC1155(initialOwner) {}\n\n    // Resolve supportsInterface ambiguity: specify AccessControl and ERC1155\n    function supportsInterface(bytes4 interfaceId)\n        public\n        view\n        virtual\n        override(AccessControl, ERC1155)\n        returns (bool)\n    {\n        return super.supportsInterface(interfaceId);\n    }\n\n    // Tokenize a product\n    function tokenizeProduct(uint productId, uint256 amount) public {\n        require(productToOwner[productId] == msg.sender, \"Not the owner of the product\");\n        uint tokenId = currentTokenId;\n        productIdToTokenId[productId] = tokenId;\n\n        mint(msg.sender, amount, \"\");\n    }\n\n    // Transfer ownership of a product\n    function transferProduct(uint productId, address to, uint256 amount) public {\n        uint tokenId = productIdToTokenId[productId];\n        require(balanceOf(msg.sender, tokenId) >= amount, \"Not enough tokens\");\n\n        safeTransferFrom(msg.sender, to, tokenId, amount, \"\");\n    }\n}\n",
  "sourcePath": "/home/mithra/blockchain/contracts/first_ownership.sol",
  "compiler": {
    "name": "solc",
    "version": "0.8.21+commit.d9974bed.Emscripten.clang"
  },
  "schemaVersion": "3.4.16",
  "updatedAt": "2024-12-24T05:07:44.714Z",
  "networkType": "ethereum",
  "devdoc": {
    "errors": {
      "AccessControlBadConfirmation()": [
        {
          "details": "The caller of a function is not the expected one. NOTE: Don't confuse with {AccessControlUnauthorizedAccount}."
        }
      ],
      "AccessControlUnauthorizedAccount(address,bytes32)": [
        {
          "details": "The `account` is missing a role."
        }
      ],
      "ERC1155InsufficientBalance(address,uint256,uint256,uint256)": [
        {
          "details": "Indicates an error related to the current `balance` of a `sender`. Used in transfers.",
          "params": {
            "balance": "Current balance for the interacting account.",
            "needed": "Minimum amount required to perform a transfer.",
            "sender": "Address whose tokens are being transferred.",
            "tokenId": "Identifier number of a token."
          }
        }
      ],
      "ERC1155InvalidApprover(address)": [
        {
          "details": "Indicates a failure with the `approver` of a token to be approved. Used in approvals.",
          "params": {
            "approver": "Address initiating an approval operation."
          }
        }
      ],
      "ERC1155InvalidArrayLength(uint256,uint256)": [
        {
          "details": "Indicates an array length mismatch between ids and values in a safeBatchTransferFrom operation. Used in batch transfers.",
          "params": {
            "idsLength": "Length of the array of token identifiers",
            "valuesLength": "Length of the array of token amounts"
          }
        }
      ],
      "ERC1155InvalidOperator(address)": [
        {
          "details": "Indicates a failure with the `operator` to be approved. Used in approvals.",
          "params": {
            "operator": "Address that may be allowed to operate on tokens without being their owner."
          }
        }
      ],
      "ERC1155InvalidReceiver(address)": [
        {
          "details": "Indicates a failure with the token `receiver`. Used in transfers.",
          "params": {
            "receiver": "Address to which tokens are being transferred."
          }
        }
      ],
      "ERC1155InvalidSender(address)": [
        {
          "details": "Indicates a failure with the token `sender`. Used in transfers.",
          "params": {
            "sender": "Address whose tokens are being transferred."
          }
        }
      ],
      "ERC1155MissingApprovalForAll(address,address)": [
        {
          "details": "Indicates a failure with the `operator`s approval. Used in transfers.",
          "params": {
            "operator": "Address that may be allowed to operate on tokens without being their owner.",
            "owner": "Address of the current owner of a token."
          }
        }
      ],
      "OwnableInvalidOwner(address)": [
        {
          "details": "The owner is not a valid owner account. (eg. `address(0)`)"
        }
      ],
      "OwnableUnauthorizedAccount(address)": [
        {
          "details": "The caller account is not authorized to perform an operation."
        }
      ]
    },
    "events": {
      "ApprovalForAll(address,address,bool)": {
        "details": "Emitted when `account` grants or revokes permission to `operator` to transfer their tokens, according to `approved`."
      },
      "RoleAdminChanged(bytes32,bytes32,bytes32)": {
        "details": "Emitted when `newAdminRole` is set as ``role``'s admin role, replacing `previousAdminRole` `DEFAULT_ADMIN_ROLE` is the starting admin for all roles, despite {RoleAdminChanged} not being emitted signaling this."
      },
      "RoleGranted(bytes32,address,address)": {
        "details": "Emitted when `account` is granted `role`. `sender` is the account that originated the contract call. This account bears the admin role (for the granted role). Expected in cases where the role was granted using the internal {AccessControl-_grantRole}."
      },
      "RoleRevoked(bytes32,address,address)": {
        "details": "Emitted when `account` is revoked `role`. `sender` is the account that originated the contract call:   - if using `revokeRole`, it is the admin role bearer   - if using `renounceRole`, it is the role bearer (i.e. `account`)"
      },
      "TransferBatch(address,address,address,uint256[],uint256[])": {
        "details": "Equivalent to multiple {TransferSingle} events, where `operator`, `from` and `to` are the same for all transfers."
      },
      "TransferSingle(address,address,address,uint256,uint256)": {
        "details": "Emitted when `value` amount of tokens of type `id` are transferred from `from` to `to` by `operator`."
      },
      "URI(string,uint256)": {
        "details": "Emitted when the URI for token type `id` changes to `value`, if it is a non-programmatic URI. If an {URI} event was emitted for `id`, the standard https://eips.ethereum.org/EIPS/eip-1155#metadata-extensions[guarantees] that `value` will equal the value returned by {IERC1155MetadataURI-uri}."
      }
    },
    "kind": "dev",
    "methods": {
      "balanceOf(address,uint256)": {
        "details": "See {IERC1155-balanceOf}."
      },
      "balanceOfBatch(address[],uint256[])": {
        "details": "See {IERC1155-balanceOfBatch}. Requirements: - `accounts` and `ids` must have the same length."
      },
      "getRoleAdmin(bytes32)": {
        "details": "Returns the admin role that controls `role`. See {grantRole} and {revokeRole}. To change a role's admin, use {_setRoleAdmin}."
      },
      "grantRole(bytes32,address)": {
        "details": "Grants `role` to `account`. If `account` had not been already granted `role`, emits a {RoleGranted} event. Requirements: - the caller must have ``role``'s admin role. May emit a {RoleGranted} event."
      },
      "hasRole(bytes32,address)": {
        "details": "Returns `true` if `account` has been granted `role`."
      },
      "isApprovedForAll(address,address)": {
        "details": "See {IERC1155-isApprovedForAll}."
      },
      "owner()": {
        "details": "Returns the address of the current owner."
      },
      "renounceOwnership()": {
        "details": "Leaves the contract without owner. It will not be possible to call `onlyOwner` functions. Can only be called by the current owner. NOTE: Renouncing ownership will leave the contract without an owner, thereby disabling any functionality that is only available to the owner."
      },
      "renounceRole(bytes32,address)": {
        "details": "Revokes `role` from the calling account. Roles are often managed via {grantRole} and {revokeRole}: this function's purpose is to provide a mechanism for accounts to lose their privileges if they are compromised (such as when a trusted device is misplaced). If the calling account had been revoked `role`, emits a {RoleRevoked} event. Requirements: - the caller must be `callerConfirmation`. May emit a {RoleRevoked} event."
      },
      "revokeRole(bytes32,address)": {
        "details": "Revokes `role` from `account`. If `account` had been granted `role`, emits a {RoleRevoked} event. Requirements: - the caller must have ``role``'s admin role. May emit a {RoleRevoked} event."
      },
      "safeBatchTransferFrom(address,address,uint256[],uint256[],bytes)": {
        "details": "See {IERC1155-safeBatchTransferFrom}."
      },
      "safeTransferFrom(address,address,uint256,uint256,bytes)": {
        "details": "See {IERC1155-safeTransferFrom}."
      },
      "setApprovalForAll(address,bool)": {
        "details": "See {IERC1155-setApprovalForAll}."
      },
      "transferOwnership(address)": {
        "details": "Transfers ownership of the contract to a new account (`newOwner`). Can only be called by the current owner."
      },
      "uri(uint256)": {
        "details": "See {IERC1155MetadataURI-uri}. This implementation returns the same URI for *all* token types. It relies on the token type ID substitution mechanism https://eips.ethereum.org/EIPS/eip-1155#metadata[defined in the ERC]. Clients calling this function must replace the `\\{id\\}` substring with the actual token type ID."
      }
    },
    "version": 1
  },
  "userdoc": {
    "kind": "user",
    "methods": {},
    "version": 1
  }
}