{
  "contractName": "supplyChain",
  "abi": [
    {
      "inputs": [],
      "stateMutability": "nonpayable",
      "type": "constructor"
    },
    {
      "inputs": [],
      "name": "AccessControlBadConfirmation",
      "type": "error"
    },
    {
      "inputs": [
        {
          "internalType": "address",
          "name": "account",
          "type": "address"
        },
        {
          "internalType": "bytes32",
          "name": "neededRole",
          "type": "bytes32"
        }
      ],
      "name": "AccessControlUnauthorizedAccount",
      "type": "error"
    },
    {
      "anonymous": false,
      "inputs": [
        {
          "indexed": false,
          "internalType": "string",
          "name": "name",
          "type": "string"
        },
        {
          "indexed": false,
          "internalType": "uint256",
          "name": "serialno",
          "type": "uint256"
        },
        {
          "indexed": false,
          "internalType": "uint256",
          "name": "productDna",
          "type": "uint256"
        },
        {
          "indexed": false,
          "internalType": "string",
          "name": "metadataHash",
          "type": "string"
        }
      ],
      "name": "NewProduct",
      "type": "event"
    },
    {
      "anonymous": false,
      "inputs": [
        {
          "indexed": true,
          "internalType": "bytes32",
          "name": "role",
          "type": "bytes32"
        },
        {
          "indexed": true,
          "internalType": "bytes32",
          "name": "previousAdminRole",
          "type": "bytes32"
        },
        {
          "indexed": true,
          "internalType": "bytes32",
          "name": "newAdminRole",
          "type": "bytes32"
        }
      ],
      "name": "RoleAdminChanged",
      "type": "event"
    },
    {
      "anonymous": false,
      "inputs": [
        {
          "indexed": true,
          "internalType": "bytes32",
          "name": "role",
          "type": "bytes32"
        },
        {
          "indexed": true,
          "internalType": "address",
          "name": "account",
          "type": "address"
        },
        {
          "indexed": true,
          "internalType": "address",
          "name": "sender",
          "type": "address"
        }
      ],
      "name": "RoleGranted",
      "type": "event"
    },
    {
      "anonymous": false,
      "inputs": [
        {
          "indexed": true,
          "internalType": "bytes32",
          "name": "role",
          "type": "bytes32"
        },
        {
          "indexed": true,
          "internalType": "address",
          "name": "account",
          "type": "address"
        },
        {
          "indexed": true,
          "internalType": "address",
          "name": "sender",
          "type": "address"
        }
      ],
      "name": "RoleRevoked",
      "type": "event"
    },
    {
      "inputs": [],
      "name": "DEFAULT_ADMIN_ROLE",
      "outputs": [
        {
          "internalType": "bytes32",
          "name": "",
          "type": "bytes32"
        }
      ],
      "stateMutability": "view",
      "type": "function",
      "constant": true
    },
    {
      "inputs": [],
      "name": "DISTRIBUTOR_ROLE",
      "outputs": [
        {
          "internalType": "bytes32",
          "name": "",
          "type": "bytes32"
        }
      ],
      "stateMutability": "view",
      "type": "function",
      "constant": true
    },
    {
      "inputs": [],
      "name": "MANUFACTURER_ROLE",
      "outputs": [
        {
          "internalType": "bytes32",
          "name": "",
          "type": "bytes32"
        }
      ],
      "stateMutability": "view",
      "type": "function",
      "constant": true
    },
    {
      "inputs": [],
      "name": "RETAILER_ROLE",
      "outputs": [
        {
          "internalType": "bytes32",
          "name": "",
          "type": "bytes32"
        }
      ],
      "stateMutability": "view",
      "type": "function",
      "constant": true
    },
    {
      "inputs": [
        {
          "internalType": "bytes32",
          "name": "role",
          "type": "bytes32"
        }
      ],
      "name": "getRoleAdmin",
      "outputs": [
        {
          "internalType": "bytes32",
          "name": "",
          "type": "bytes32"
        }
      ],
      "stateMutability": "view",
      "type": "function",
      "constant": true
    },
    {
      "inputs": [
        {
          "internalType": "bytes32",
          "name": "role",
          "type": "bytes32"
        },
        {
          "internalType": "address",
          "name": "account",
          "type": "address"
        }
      ],
      "name": "grantRole",
      "outputs": [],
      "stateMutability": "nonpayable",
      "type": "function"
    },
    {
      "inputs": [
        {
          "internalType": "bytes32",
          "name": "role",
          "type": "bytes32"
        },
        {
          "internalType": "address",
          "name": "account",
          "type": "address"
        }
      ],
      "name": "hasRole",
      "outputs": [
        {
          "internalType": "bool",
          "name": "",
          "type": "bool"
        }
      ],
      "stateMutability": "view",
      "type": "function",
      "constant": true
    },
    {
      "inputs": [
        {
          "internalType": "uint256",
          "name": "",
          "type": "uint256"
        }
      ],
      "name": "productToOwner",
      "outputs": [
        {
          "internalType": "address",
          "name": "",
          "type": "address"
        }
      ],
      "stateMutability": "view",
      "type": "function",
      "constant": true
    },
    {
      "inputs": [
        {
          "internalType": "uint256",
          "name": "",
          "type": "uint256"
        }
      ],
      "name": "products",
      "outputs": [
        {
          "internalType": "string",
          "name": "name",
          "type": "string"
        },
        {
          "internalType": "uint256",
          "name": "batch_number",
          "type": "uint256"
        },
        {
          "internalType": "uint256",
          "name": "productDna",
          "type": "uint256"
        },
        {
          "internalType": "uint32",
          "name": "rewardTime",
          "type": "uint32"
        },
        {
          "internalType": "uint256",
          "name": "creationDate",
          "type": "uint256"
        },
        {
          "internalType": "string",
          "name": "metadataHash",
          "type": "string"
        }
      ],
      "stateMutability": "view",
      "type": "function",
      "constant": true
    },
    {
      "inputs": [
        {
          "internalType": "bytes32",
          "name": "role",
          "type": "bytes32"
        },
        {
          "internalType": "address",
          "name": "callerConfirmation",
          "type": "address"
        }
      ],
      "name": "renounceRole",
      "outputs": [],
      "stateMutability": "nonpayable",
      "type": "function"
    },
    {
      "inputs": [
        {
          "internalType": "bytes32",
          "name": "role",
          "type": "bytes32"
        },
        {
          "internalType": "address",
          "name": "account",
          "type": "address"
        }
      ],
      "name": "revokeRole",
      "outputs": [],
      "stateMutability": "nonpayable",
      "type": "function"
    },
    {
      "inputs": [
        {
          "internalType": "bytes4",
          "name": "interfaceId",
          "type": "bytes4"
        }
      ],
      "name": "supportsInterface",
      "outputs": [
        {
          "internalType": "bool",
          "name": "",
          "type": "bool"
        }
      ],
      "stateMutability": "view",
      "type": "function",
      "constant": true
    },
    {
      "inputs": [
        {
          "internalType": "string",
          "name": "_name",
          "type": "string"
        },
        {
          "internalType": "string",
          "name": "_metadataHash",
          "type": "string"
        }
      ],
      "name": "createRandomProduct",
      "outputs": [],
      "stateMutability": "nonpayable",
      "type": "function"
    }
  ],
  "bytecode": "0x60806040526010600455600454600a6200001a919062000368565b60055560016006553480156200002e575f80fd5b50620000435f801b336200007d60201b60201c565b50620000767feefb95e842a3287179d933b4460be539a1d5af11aa8b325bb45c5c8dc92de4ed336200007d60201b60201c565b50620003b8565b5f6200009083836200017860201b60201c565b6200016e5760015f808581526020019081526020015f205f015f8473ffffffffffffffffffffffffffffffffffffffff1673ffffffffffffffffffffffffffffffffffffffff1681526020019081526020015f205f6101000a81548160ff0219169083151502179055506200010a620001db60201b60201c565b73ffffffffffffffffffffffffffffffffffffffff168273ffffffffffffffffffffffffffffffffffffffff16847f2f8788117e7eff1d82e926ec794901d17c78024a50270940304540a733656f0d60405160405180910390a46001905062000172565b5f90505b92915050565b5f805f8481526020019081526020015f205f015f8373ffffffffffffffffffffffffffffffffffffffff1673ffffffffffffffffffffffffffffffffffffffff1681526020019081526020015f205f9054906101000a900460ff16905092915050565b5f33905090565b7f4e487b71000000000000000000000000000000000000000000000000000000005f52601160045260245ffd5b5f8160011c9050919050565b5f808291508390505b60018511156200026c57808604811115620002445762000243620001e2565b5b6001851615620002545780820291505b808102905062000264856200020f565b945062000224565b94509492505050565b5f8262000286576001905062000358565b8162000295575f905062000358565b8160018114620002ae5760028114620002b957620002ef565b600191505062000358565b60ff841115620002ce57620002cd620001e2565b5b8360020a915084821115620002e857620002e7620001e2565b5b5062000358565b5060208310610133831016604e8410600b8410161715620003295782820a905083811115620003235762000322620001e2565b5b62000358565b6200033884848460016200021b565b92509050818404811115620003525762000351620001e2565b5b81810290505b9392505050565b5f819050919050565b5f62000374826200035f565b915062000381836200035f565b9250620003b07fffffffffffffffffffffffffffffffffffffffffffffffffffffffffffffffff848462000275565b905092915050565b6115da80620003c65f395ff3fe608060405234801561000f575f80fd5b50600436106100cd575f3560e01c80637acc0b201161008a578063a217fddf11610064578063a217fddf1461023a578063d547741f14610258578063dfaa651d14610274578063f0bd87cc14610290576100cd565b80637acc0b20146101b757806391d14854146101ec578063965288b01461021c576100cd565b806301ffc9a7146100d15780632115e7bf14610101578063248a9ca31461011f5780632f2ff15d1461014f57806336568abe1461016b578063420fadc814610187575b5f80fd5b6100eb60048036038101906100e69190610c47565b6102ae565b6040516100f89190610c8c565b60405180910390f35b610109610327565b6040516101169190610cbd565b60405180910390f35b61013960048036038101906101349190610d00565b61034b565b6040516101469190610cbd565b60405180910390f35b61016960048036038101906101649190610d85565b610367565b005b61018560048036038101906101809190610d85565b610389565b005b6101a1600480360381019061019c9190610df6565b610404565b6040516101ae9190610e30565b60405180910390f35b6101d160048036038101906101cc9190610df6565b610434565b6040516101e396959493929190610f00565b60405180910390f35b61020660048036038101906102019190610d85565b610596565b6040516102139190610c8c565b60405180910390f35b6102246105f9565b6040516102319190610cbd565b60405180910390f35b61024261061d565b60405161024f9190610cbd565b60405180910390f35b610272600480360381019061026d9190610d85565b610623565b005b61028e60048036038101906102899190611099565b610645565b005b6102986106a6565b6040516102a59190610cbd565b60405180910390f35b5f7f7965db0b000000000000000000000000000000000000000000000000000000007bffffffffffffffffffffffffffffffffffffffffffffffffffffffff1916827bffffffffffffffffffffffffffffffffffffffffffffffffffffffff19161480610320575061031f826106ca565b5b9050919050565b7f2a5f906c256a5d799494fcd066e1f6c077689de1cdb65052a1624de4bace99bf81565b5f805f8381526020019081526020015f20600101549050919050565b6103708261034b565b61037981610733565b6103838383610747565b50505050565b610391610830565b73ffffffffffffffffffffffffffffffffffffffff168173ffffffffffffffffffffffffffffffffffffffff16146103f5576040517f6697b23200000000000000000000000000000000000000000000000000000000815260040160405180910390fd5b6103ff8282610837565b505050565b6001602052805f5260405f205f915054906101000a900473ffffffffffffffffffffffffffffffffffffffff1681565b60038181548110610443575f80fd5b905f5260205f2090600602015f91509050805f0180546104629061113c565b80601f016020809104026020016040519081016040528092919081815260200182805461048e9061113c565b80156104d95780601f106104b0576101008083540402835291602001916104d9565b820191905f5260205f20905b8154815290600101906020018083116104bc57829003601f168201915b505050505090806001015490806002015490806003015f9054906101000a900463ffffffff16908060040154908060050180546105159061113c565b80601f01602080910402602001604051908101604052809291908181526020018280546105419061113c565b801561058c5780601f106105635761010080835404028352916020019161058c565b820191905f5260205f20905b81548152906001019060200180831161056f57829003601f168201915b5050505050905086565b5f805f8481526020019081526020015f205f015f8373ffffffffffffffffffffffffffffffffffffffff1673ffffffffffffffffffffffffffffffffffffffff1681526020019081526020015f205f9054906101000a900460ff16905092915050565b7feefb95e842a3287179d933b4460be539a1d5af11aa8b325bb45c5c8dc92de4ed81565b5f801b81565b61062c8261034b565b61063581610733565b61063f8383610837565b50505050565b7feefb95e842a3287179d933b4460be539a1d5af11aa8b325bb45c5c8dc92de4ed61066f81610733565b5f61067984610920565b90506064816106889190611199565b8161069391906111f6565b90506106a0848285610963565b50505050565b7ffbd454f36a7e1a388bd6fc3ab10d434aa4578f811acbbcf33afb1c697486313c81565b5f7f01ffc9a7000000000000000000000000000000000000000000000000000000007bffffffffffffffffffffffffffffffffffffffffffffffffffffffff1916827bffffffffffffffffffffffffffffffffffffffffffffffffffffffff1916149050919050565b6107448161073f610830565b610b90565b50565b5f6107528383610596565b6108265760015f808581526020019081526020015f205f015f8473ffffffffffffffffffffffffffffffffffffffff1673ffffffffffffffffffffffffffffffffffffffff1681526020019081526020015f205f6101000a81548160ff0219169083151502179055506107c3610830565b73ffffffffffffffffffffffffffffffffffffffff168273ffffffffffffffffffffffffffffffffffffffff16847f2f8788117e7eff1d82e926ec794901d17c78024a50270940304540a733656f0d60405160405180910390a46001905061082a565b5f90505b92915050565b5f33905090565b5f6108428383610596565b15610916575f805f8581526020019081526020015f205f015f8473ffffffffffffffffffffffffffffffffffffffff1673ffffffffffffffffffffffffffffffffffffffff1681526020019081526020015f205f6101000a81548160ff0219169083151502179055506108b3610830565b73ffffffffffffffffffffffffffffffffffffffff168273ffffffffffffffffffffffffffffffffffffffff16847ff6391f5c32d9c69d2a47ea670b442974b53935d1edc7fd64eb21e047a839171b60405160405180910390a46001905061091a565b5f90505b92915050565b5f80826040516020016109339190611263565b604051602081830303815290604052805190602001205f1c90506005548161095b9190611199565b915050919050565b7feefb95e842a3287179d933b4460be539a1d5af11aa8b325bb45c5c8dc92de4ed61098d81610733565b60036040518060c0016040528086815260200160065481526020018581526020015f63ffffffff16815260200142815260200184815250908060018154018082558091505060019003905f5260205f2090600602015f909190919091505f820151815f0190816109fd9190611416565b5060208201518160010155604082015181600201556060820151816003015f6101000a81548163ffffffff021916908363ffffffff1602179055506080820151816004015560a0820151816005019081610a579190611416565b5050505f6001600380549050610a6d91906111f6565b90503360015f8381526020019081526020015f205f6101000a81548173ffffffffffffffffffffffffffffffffffffffff021916908373ffffffffffffffffffffffffffffffffffffffff16021790555060025f3373ffffffffffffffffffffffffffffffffffffffff1673ffffffffffffffffffffffffffffffffffffffff1681526020019081526020015f205f815480929190610b0b906114e5565b91905055507f162b73be7176f80d0bf84c8c443a2475901e66c38ed5a4809970d3042125c3fd856006548686604051610b47949392919061152c565b60405180910390a15f600a600654610b5f9190611199565b03610b71576001600681905550610b89565b60065f815480929190610b83906114e5565b91905055505b5050505050565b610b9a8282610596565b610bdd5780826040517fe2517d3f000000000000000000000000000000000000000000000000000000008152600401610bd492919061157d565b60405180910390fd5b5050565b5f604051905090565b5f80fd5b5f80fd5b5f7fffffffff0000000000000000000000000000000000000000000000000000000082169050919050565b610c2681610bf2565b8114610c30575f80fd5b50565b5f81359050610c4181610c1d565b92915050565b5f60208284031215610c5c57610c5b610bea565b5b5f610c6984828501610c33565b91505092915050565b5f8115159050919050565b610c8681610c72565b82525050565b5f602082019050610c9f5f830184610c7d565b92915050565b5f819050919050565b610cb781610ca5565b82525050565b5f602082019050610cd05f830184610cae565b92915050565b610cdf81610ca5565b8114610ce9575f80fd5b50565b5f81359050610cfa81610cd6565b92915050565b5f60208284031215610d1557610d14610bea565b5b5f610d2284828501610cec565b91505092915050565b5f73ffffffffffffffffffffffffffffffffffffffff82169050919050565b5f610d5482610d2b565b9050919050565b610d6481610d4a565b8114610d6e575f80fd5b50565b5f81359050610d7f81610d5b565b92915050565b5f8060408385031215610d9b57610d9a610bea565b5b5f610da885828601610cec565b9250506020610db985828601610d71565b9150509250929050565b5f819050919050565b610dd581610dc3565b8114610ddf575f80fd5b50565b5f81359050610df081610dcc565b92915050565b5f60208284031215610e0b57610e0a610bea565b5b5f610e1884828501610de2565b91505092915050565b610e2a81610d4a565b82525050565b5f602082019050610e435f830184610e21565b92915050565b5f81519050919050565b5f82825260208201905092915050565b5f5b83811015610e80578082015181840152602081019050610e65565b5f8484015250505050565b5f601f19601f8301169050919050565b5f610ea582610e49565b610eaf8185610e53565b9350610ebf818560208601610e63565b610ec881610e8b565b840191505092915050565b610edc81610dc3565b82525050565b5f63ffffffff82169050919050565b610efa81610ee2565b82525050565b5f60c0820190508181035f830152610f188189610e9b565b9050610f276020830188610ed3565b610f346040830187610ed3565b610f416060830186610ef1565b610f4e6080830185610ed3565b81810360a0830152610f608184610e9b565b9050979650505050505050565b5f80fd5b5f80fd5b7f4e487b71000000000000000000000000000000000000000000000000000000005f52604160045260245ffd5b610fab82610e8b565b810181811067ffffffffffffffff82111715610fca57610fc9610f75565b5b80604052505050565b5f610fdc610be1565b9050610fe88282610fa2565b919050565b5f67ffffffffffffffff82111561100757611006610f75565b5b61101082610e8b565b9050602081019050919050565b828183375f83830152505050565b5f61103d61103884610fed565b610fd3565b90508281526020810184848401111561105957611058610f71565b5b61106484828561101d565b509392505050565b5f82601f8301126110805761107f610f6d565b5b813561109084826020860161102b565b91505092915050565b5f80604083850312156110af576110ae610bea565b5b5f83013567ffffffffffffffff8111156110cc576110cb610bee565b5b6110d88582860161106c565b925050602083013567ffffffffffffffff8111156110f9576110f8610bee565b5b6111058582860161106c565b9150509250929050565b7f4e487b71000000000000000000000000000000000000000000000000000000005f52602260045260245ffd5b5f600282049050600182168061115357607f821691505b6020821081036111665761116561110f565b5b50919050565b7f4e487b71000000000000000000000000000000000000000000000000000000005f52601260045260245ffd5b5f6111a382610dc3565b91506111ae83610dc3565b9250826111be576111bd61116c565b5b828206905092915050565b7f4e487b71000000000000000000000000000000000000000000000000000000005f52601160045260245ffd5b5f61120082610dc3565b915061120b83610dc3565b9250828203905081811115611223576112226111c9565b5b92915050565b5f81905092915050565b5f61123d82610e49565b6112478185611229565b9350611257818560208601610e63565b80840191505092915050565b5f61126e8284611233565b915081905092915050565b5f819050815f5260205f209050919050565b5f6020601f8301049050919050565b5f82821b905092915050565b5f600883026112d57fffffffffffffffffffffffffffffffffffffffffffffffffffffffffffffffff8261129a565b6112df868361129a565b95508019841693508086168417925050509392505050565b5f819050919050565b5f61131a61131561131084610dc3565b6112f7565b610dc3565b9050919050565b5f819050919050565b61133383611300565b61134761133f82611321565b8484546112a6565b825550505050565b5f90565b61135b61134f565b61136681848461132a565b505050565b5b818110156113895761137e5f82611353565b60018101905061136c565b5050565b601f8211156113ce5761139f81611279565b6113a88461128b565b810160208510156113b7578190505b6113cb6113c38561128b565b83018261136b565b50505b505050565b5f82821c905092915050565b5f6113ee5f19846008026113d3565b1980831691505092915050565b5f61140683836113df565b9150826002028217905092915050565b61141f82610e49565b67ffffffffffffffff81111561143857611437610f75565b5b611442825461113c565b61144d82828561138d565b5f60209050601f83116001811461147e575f841561146c578287015190505b61147685826113fb565b8655506114dd565b601f19841661148c86611279565b5f5b828110156114b35784890151825560018201915060208501945060208101905061148e565b868310156114d057848901516114cc601f8916826113df565b8355505b6001600288020188555050505b505050505050565b5f6114ef82610dc3565b91507fffffffffffffffffffffffffffffffffffffffffffffffffffffffffffffffff8203611521576115206111c9565b5b600182019050919050565b5f6080820190508181035f8301526115448187610e9b565b90506115536020830186610ed3565b6115606040830185610ed3565b81810360608301526115728184610e9b565b905095945050505050565b5f6040820190506115905f830185610e21565b61159d6020830184610cae565b939250505056fea2646970667358221220d351eb2a8b8e110dc6ef67a7510df8fade5b0051e16f4a37ef5063a68a2ffbc764736f6c63430008150033",
  "immutableReferences": {},
  "source": "// SPDX-License-Identifier: MIT\npragma solidity ^0.8.0;\n\nimport \"@openzeppelin/contracts/access/AccessControl.sol\";\n\ncontract supplyChain is AccessControl {\n    bytes32 public constant MANUFACTURER_ROLE = keccak256(\"MANUFACTURER_ROLE\");\n    bytes32 public constant DISTRIBUTOR_ROLE = keccak256(\"DISTRIBUTOR_ROLE\");\n    bytes32 public constant RETAILER_ROLE = keccak256(\"RETAILER_ROLE\");\n\n    struct Product {\n        string name;\n        uint batch_number;\n        uint productDna;\n        uint32 rewardTime;  \n        uint creationDate;\n        string metadataHash; // IPFS or Arweave hash\n    }\n\n    mapping(uint => address) public productToOwner;\n    mapping(address => uint) ownerProductCount;\n\n    Product[] public products;\n\n    uint dnaDigits = 16;\n    uint dnaModulus = 10 ** dnaDigits;\n    uint private batchNum = 1;\n\n    event NewProduct(string name, uint serialno, uint productDna, string metadataHash);\n\n    constructor() {\n        _grantRole(DEFAULT_ADMIN_ROLE, msg.sender);\n        _grantRole(MANUFACTURER_ROLE, msg.sender); // Owner is default manufacturer\n    }\n\n    function _createProduct(string memory _name, uint _dna, string memory _metadataHash) internal onlyRole(MANUFACTURER_ROLE) {\n        products.push(Product(_name, batchNum, _dna, uint32(0), block.timestamp, _metadataHash));\n        uint id = products.length - 1;\n        productToOwner[id] = msg.sender;\n        ownerProductCount[msg.sender]++;\n        emit NewProduct(_name, batchNum, _dna, _metadataHash);\n        if (batchNum % 10 == 0) batchNum = 1;\n        else batchNum++;\n    }\n\n    function _generateRandomDna(string memory _str) private view returns (uint) {\n        uint rand = uint(keccak256(abi.encodePacked(_str)));\n        return rand % dnaModulus;\n    }\n\n    function createRandomProduct(string memory _name, string memory _metadataHash) public onlyRole(MANUFACTURER_ROLE) {\n        uint randDna = _generateRandomDna(_name);\n        randDna = randDna - (randDna % 100);\n        _createProduct(_name, randDna, _metadataHash);\n    }\n}\n",
  "sourcePath": "/home/mithra/blockchain/contracts/first_prac.sol",
  "compiler": {
    "name": "solc",
    "version": "0.8.21+commit.d9974bed.Emscripten.clang"
  },
  "schemaVersion": "3.4.16",
  "updatedAt": "2024-12-24T05:07:44.691Z",
  "networkType": "ethereum",
  "devdoc": {
    "errors": {
      "AccessControlBadConfirmation()": [
        {
          "details": "The caller of a function is not the expected one. NOTE: Don't confuse with {AccessControlUnauthorizedAccount}."
        }
      ],
      "AccessControlUnauthorizedAccount(address,bytes32)": [
        {
          "details": "The `account` is missing a role."
        }
      ]
    },
    "events": {
      "RoleAdminChanged(bytes32,bytes32,bytes32)": {
        "details": "Emitted when `newAdminRole` is set as ``role``'s admin role, replacing `previousAdminRole` `DEFAULT_ADMIN_ROLE` is the starting admin for all roles, despite {RoleAdminChanged} not being emitted signaling this."
      },
      "RoleGranted(bytes32,address,address)": {
        "details": "Emitted when `account` is granted `role`. `sender` is the account that originated the contract call. This account bears the admin role (for the granted role). Expected in cases where the role was granted using the internal {AccessControl-_grantRole}."
      },
      "RoleRevoked(bytes32,address,address)": {
        "details": "Emitted when `account` is revoked `role`. `sender` is the account that originated the contract call:   - if using `revokeRole`, it is the admin role bearer   - if using `renounceRole`, it is the role bearer (i.e. `account`)"
      }
    },
    "kind": "dev",
    "methods": {
      "getRoleAdmin(bytes32)": {
        "details": "Returns the admin role that controls `role`. See {grantRole} and {revokeRole}. To change a role's admin, use {_setRoleAdmin}."
      },
      "grantRole(bytes32,address)": {
        "details": "Grants `role` to `account`. If `account` had not been already granted `role`, emits a {RoleGranted} event. Requirements: - the caller must have ``role``'s admin role. May emit a {RoleGranted} event."
      },
      "hasRole(bytes32,address)": {
        "details": "Returns `true` if `account` has been granted `role`."
      },
      "renounceRole(bytes32,address)": {
        "details": "Revokes `role` from the calling account. Roles are often managed via {grantRole} and {revokeRole}: this function's purpose is to provide a mechanism for accounts to lose their privileges if they are compromised (such as when a trusted device is misplaced). If the calling account had been revoked `role`, emits a {RoleRevoked} event. Requirements: - the caller must be `callerConfirmation`. May emit a {RoleRevoked} event."
      },
      "revokeRole(bytes32,address)": {
        "details": "Revokes `role` from `account`. If `account` had been granted `role`, emits a {RoleRevoked} event. Requirements: - the caller must have ``role``'s admin role. May emit a {RoleRevoked} event."
      },
      "supportsInterface(bytes4)": {
        "details": "See {IERC165-supportsInterface}."
      }
    },
    "version": 1
  },
  "userdoc": {
    "kind": "user",
    "methods": {},
    "version": 1
  }
}